S31508000000C80C002005010008652C00085D280008BA
S315080000100D2C0008350B0008913800080000000078
S31508000020000000000000000000000000193300086E
S31508000030810C000800000000813100081D3300080B
S315080000401F0100081F0100081F0100081F01000802
S315080000501F0100081F0100081F0100081F010008F2
S315080000601F0100081F0100081F0100081F010008E2
S315080000701F0100081F0100081F0100081F010008D2
S315080000801F0100081F010008710900081F01000868
S315080000901F0100081F0100081F0100081F010008B2
S315080000A01F010008D13300081F0100081F010008BE
S315080000B01F0100081F0100081F0100081F01000892
S315080000C01F0100081F0100081F0100081F01000882
S315080000D01F010008313800081F0100083D380008D4
S315080000E01F0100081F0100081F010008DFF810D0D3
S315080000F000F000FC00480047AD420008AFF300805E
S31508000100C80C00200648804706480047FEE7FEE779
S31508000110FEE7FEE7FEE7FEE7FEE7FEE7FEE7FEE7A9
S31508000120CD330008ED000008202A04DB203A21FA26
S3150800013002F00021704721FA02F3D040C2F12002F2
S315080001409140084319467047D2B201E000F8012BE6
S31508000150491EFBD270470022F6E710B513460A4639
S3150800016004461946FFF7F0FF204610BDF0B480EAB2
S315080001700102D40F4200B2EB410F02D202460846F2
S3150800018011464A0042D0C30DDDB2C1F3C752AD1ABB
S31508000190202D35DAC1F3160141F4000204B15242AA
S315080001A0C5F1200602FA06F12A411044B3EBD05FE6
S315080001B023D0C4B1012DA0EBC35009DCF0BC4FF02D
S315080001C0004202EAC352DBB200F5000000F0EFBAC3
S315080001D0400000F1807000EBC350A0F1807040EA47
S315080001E0D170490009E0490841EAC071A0EBC35043
S315080001F000F50000400800EBC350F0BC00F0CEBA92
S315080002006142012202EB4101001BF6E7F0BC704790
S3150800021081F00041AAE780F00040A7E780EA0102E2
S3150800022010B502F00043400022D04A001FD0010E4C
S3150800023001EB1261C0F35600C2F3560240F4000007
S3150800024042F40002A0FB022000047F39140400D007
S31508000250401C50EA124001D44000491EC2B20C06A6
S3150800026004EBD010401C4008802A02D003E000208E
S3150800027010BD20F00100002900DA0020184310BD47
S3150800028030B480EA010202F0004530F0004221F065
S31508000290004013D090B1C30DD40DC2F31601C0F3BC
S315080002A01600E41A41F4000140F400027D3491423C
S315080002B001D3641C00E04900002C02DA30BC00209F
S315080002C070474FF400000023914201D3891A034373
S315080002D040084FEA4101F7D151B1914202D14FF09E
S315080002E0004105E002D24FF0010101E06FF0010183
S315080002F003EBC450284430BC00F050BA2DE9FE4F39
S31508000300804681EA0300C00F0C46009021F00041A8
S3150800031023F00045B8EB0200A94105D24046214624
S3150800032090461C460B46024623F00040104347D031
S31508000330270DC7F30A00C3F30A510290401A019029
S3150800034040286BDAC3F3130040F4801B00989246EA
S3150800035020B10023D2EB030A63EB0B0B0198594635
S31508000360C0F14002504600F0F8F906460D465046E0
S315080003705946019A00F000FA10EB08006141002482
S3150800038087EA115284EAE7731A4340D0009A62B3A7
S31508000390019A012A4FEA075215DC001B61EB02019C
S315080003A04FF0004202EA0752CDE90042001C41F52F
S315080003B0801132462B4600F037FA03B0BDE8F08FBD
S315080003C040462146F9E7001B61EB0201001C41F596
S315080003D0801300185B412018A2F5001747EB0301AC
S315080003E040EAD570B6196D4111E06D084FEA360638
S315080003F045EAC0754FEA0752001B61EB0201001C73
S3150800040041F5801149084FEA30000019514132463A
S315080004102B4603B0BDE8F04F00F0F7B9009801226B
S3150800042040000023D0EB020263EBE07300982146FC
S315080004304FEAE074B8EB000061EB0401E9E783F0EA
S3150800044000435BE781F0004158E72DE9FE4F81EA5A
S31508000450030404F0004421F0004100944FF0000B1F
S3150800046023F0004350EA01045ED052EA03045BD04D
S31508000470C3F30A54C1F30A552C44A4F2F334019485
S31508000480A0FB0254C1F3130141F48011C3F3130313
S3150800049043F4801301FB024400FB034E840A970AC7
S315080004A044EA815447EA8357A4FB076802958D0AF4
S315080004B005FB07854FEA932C04FB0C542705029D80
S315080004C04FEA065847EA1637B5EB08056EEB070CF0
S315080004D0870E920E47EA811742EA8312A7FB0201AA
S315080004E0B6EB0B0164EB00042B0D43EA0C335E18E4
S315080004F044EB1C50DA465146E7FB0201C5F31304E8
S315080005004FEA0B3343EA14534FEA0432019C43EA99
S315080005100603A4F10C040294009CCDE900B400F093
S3150800052083F903B0BDE8F08F00200146F9E72DE90D
S31508000530F04D81EA030404F0004B21F0004514460F
S315080005404FF0000A23F0004150EA050220D054EA91
S3150800055001021DD0C5F30A570246C5F31303C1F3BA
S315080005601300C1F30A5640F4801543F48013A7EB31
S315080005700608101BD64608F2FD3873EB050002D3B1
S3150800058008F1010801E092185B41B8F1000F03DA9F
S3150800059000200146BDE8F08D00204FF48011064684
S315080005A084460EE0171B73EB050705D3121B63EB96
S315080005B0050306434CEA010C49084FEA3000921835
S315080005C05B4150EA0107EDD152EA030012D082EAF4
S315080005D0040083EA0501084305D0101BAB4106D287
S315080005E00122002306E000224FF0004302E06FF0EC
S315080005F0010253101AEB06004CEB085110EB0A00E7
S3150800060041EB0B01BDE8F04D00F0FFB8C10F80EAE1
S31508000610E0700844CA079623002100F0C8B80EB552
S3150800062040F2334102910021CDE900110A460B46FA
S3150800063000F0FAF803B000BD00F0004220F00040D8
S31508000640C10DC0F3160040F400007F2901DA00202E
S315080006507047962903DCC1F19601C84001E0963936
S315080006608840002AF4D040427047C1F30A5210B5B8
S31508000670C1F3130140F2FF3341F480119A4201DAC3
S31508000680002010BD40F233439A42A2F2334203DC03
S315080006905242FFF749FD10BD904010BD30B5041E0B
S315080006A071F1000404DB4FF00044404264EB0101A1
S315080006B0141E73F1000405DB1C464FF0004352423A
S315080006C063EB0403994208BF904230BD30B50B4630
S315080006D0014600202022012409E021FA02F59D4264
S315080006E005D303FA02F5491B04FA02F52844151E38
S315080006F0A2F10102F1DC30BD2DE9F05F05460020CC
S3150800070092469B4688460646814640241BE0284674
S31508000710414647462246FFF707FD53465A46C01A42
S31508000720914110D311461846224600F016F82D1AA4
S3150800073067EB01084F4622460120002100F00DF81C
S3150800074017EB00094E41201EA4F10104DFDC4846E0
S3150800075031462A464346BDE8F09F202A04DB203A64
S3150800076000FA02F1002070479140C2F1200320FAF6
S3150800077003F3194390407047202A06DBCB17203A2B
S3150800078041FA02F043EAE07306E041FA02F3D04088
S31508000790C2F1200291400843194670470029A8BFB4
S315080007A07047401C490008BF20F00100704710B48C
S315080007B0B0FA80FC00FA0CF050EA010404BF10BC41
S315080007C0704749B1CCF1200421FA04F411FA0CF16E
S315080007D018BF012121430843A3EB0C01CB1D4FEAA7
S315080007E000614FEA102042BF002010BC704700EBA2
S315080007F0C35010440029A4BF10BC7047401C4900D0
S3150800080008BF20F0010010BC704710B5141E73F124
S31508000810000408DA401C41F1000192185B411A43B2
S3150800082001D120F0010010BD2DE9F04D92469B46FE
S3150800083011B1B1FA81F202E0B0FA80F220329046A4
S31508000840FFF78BFF04460F4640EA0A0041EA0B0110
S3150800085053465A46084313D0114653EA010019D0A5
S31508000860C8F140025046FFF75FFC05460E46504663
S3150800087059464246FFF771FF084305D0012004E0B8
S3150800088020463946BDE8F08D0020054346EAE07665
S315080008902C4337430A986305E40AA0EB08000022B4
S315080008A0FD0A44EA47540A3002D500200146E9E722
S315080008B0010510196941DDE9084500196941BDE8D6
S315080008C0F04DA2E7C1F30A52C1F3130140F2FF3318
S315080008D041F480119A4202DA00200146704740F23C
S315080008E033439A42A2F2334202DC5242FFF71CBC5F
S315080008F0FFF733BF064C074D06E0E06840F00103FA
S3150800090094E8070098471034AC42F6D3FFF7F2FB99
S31508000910F84F00081850000870B58C1810F8015BDD
S3150800092015F0070301D110F8013B2A1106D110F87A
S31508000930012B03E010F8016B01F8016B5B1EF9D17E
S315080009402B0705D40023521E0DD401F8013BFAE704
S3150800095010F8013BCB1A921C03E013F8015B01F86F
S31508000960015B521EF9D5A142D8D3002070BD000004
S31508000970014800F018BA00003007002070B5044698
S3150800098000688168C943C90717D1816821F0010148
S31508000990816000F025FD05460AE000BF00F020FD55
S315080009A0401B022804D920688068C043C00706D0C7
S315080009B020688068C043C007F0D0002070BDA06AD8
S315080009C040F01000A062E06A40F00100E0620120F9
S315080009D070BD0000F8B500260446009600688168D8
S315080009E0C943C9072DD0816841F0010181601648C5
S315080009F016490068B0FBF1F000E0401E00900028A0
S31508000A00FBD100F0EDFC054616E000BF00F0E8FC5F
S31508000A10401B022810D920688068C043C0070BD045
S31508000A20A06A40F01000A062E06A40F00100E062AF
S31508000A3084F824600120F8BD20688068C043C00798
S31508000A40E4D10020F8BD00001403002040420F0046
S31508000A5038B50F4C2078A0B16068FFF7E0FD00229A
S31508000A600C4BFFF7F2FCFFF700FE82B20A486280E1
S31508000A70007830B90820009004232021282002F0AD
S31508000A8071FA064800F0C2FA0020207038BD00004E
S31508000A90A000002040EA1440010000203007002092
S31508000AA00148408870470000A000002010B5194C86
S31508000AB001220821204600F08EFC642000F07CFB11
S31508000AC000220821204600F086FC01F0EBFE01F02A
S31508000AD001FF02F06AF9002108230FA2084602F076
S31508000AE064FA08230EA21021002002F05EFA0823F9
S31508000AF00DA22021002002F058FA08230CA220217A
S31508000B00482002F052FA01F0ABFEBDE8104002F0B0
S31508000B1063BA0000000C0140464C41473A00000009
S31508000B2053454E3A000000004241543A0000000086
S31508000B306D560000FEE7000010B50B4CA1780B4877
S31508000B4051B1A178C9070DD00022082100F043FC55
S31508000B50A078401EA07010BD0022BDE810400821F4
S31508000B6000F039BC0122F0E700000020000C01402B
S31508000B7010B54FF48041104800F020FC0F4C0028B7
S31508000B80E0780CD0042814D9207880F00100207071
S31508000B9021780BA002F07EFE207810B109E0401CF7
S31508000BA008E000210A4802F032F80021094802F05C
S31508000BB02EF80020E07010BD001001400000002053
S31508000BC052756E466C6167203D2025640D0A00004B
S31508000BD0900000209800002010B54FF400411748F7
S31508000BE000F0ECFB164C08B1002024E0207905281B
S31508000BF001D2401C2071C0B205281DD1607880F052
S31508000C000100607002F030F8607860B100210823B6
S31508000C100CA2084602F0C9F908230DA210210020EB
S31508000C2002F0C3F901E002F065FA02F0D5F90420F2
S31508000C30A0702079401C207110BD000000100140F2
S31508000C400000002050726F64756374206F660000A0
S31508000C505465616D20536576656E00000EB50748CC
S31508000C604078002808D1684602F002FB08236A4645
S31508000C701021282002F099F90EBD0000000000207E
S31508000C8070477047F8B50024009490F8242025464C
S31508000C90012A12D0012280F824204A681F23072A35
S31508000CA00DD20668776B521E02EB820293409F4371
S31508000CB00B6893401F43776319E00220F8BD066866
S31508000CC00D2A0AD2376BD21F02EB820293409F434A
S31508000CD00B6893401F43376309E0F76A0D3A02EB46
S31508000CE0820293409F430B6893401F43F7620A684A
S31508000CF0072306680A2A0AD3F7680A3A02EB420269
S31508000D0093409F438B6893401F43F76008E0376919
S31508000D1002EB420293409F438B6893401F4337611F
S31508000D200A68102A01D0112A20D1124B02689A4269
S31508000D3017D193681B0219D4936843F40003936090
S31508000D400968102912D10C490C4A0968B1FBF2F15D
S31508000D5001EB8101490000E0491E00910029FBD101
S31508000D6004E0816A41F020018162012480F8245060
S31508000D702046F8BD002401401403002040420F001D
S31508000D8010B5054A0168914205D100F009F80349F2
S31508000D9048600120087010BD00240140A000002012
S31508000DA00068C06C704770B50446006806684568F8
S31508000DB0A90625D5B10723D5A16AC90603D4A16A10
S31508000DC041F40071A1628168C1F34241072910D13B
S31508000DD0217B71B9416821F020014160A06A20F4A5
S31508000DE08070A062A06AC00403D4A06A40F0010023
S31508000DF0A0622046FFF7C4FF21686FF01200086062
S31508000E0028062ED570072CD5A06AC00603D4A06A7A
S31508000E1040F40050A06220688168C1F302310729B6
S31508000E2009D04168490515D48168C1F342410729AB
S31508000E3010D1217B71B9416821F080014160A06A17
S31508000E4020F48050A062A06AC00503D4A06A40F0CE
S31508000E500100A0622046FFF714FF21686FF00C001E
S31508000E60086068060CD5F0070AD0A06A40F48030FE
S31508000E70A062204600F094F821686FF0010008602F
S31508000E8070BD00002DE9F0414FF0000704003D4613
S31508000E907ED0A06A002628B9E66284F82460204637
S31508000EA000F080F82046FFF769FDA16AC90600D45C
S31508000EB020B1A06A40F01000A06269E0A16A21F49E
S31508000EC0885141F00201A1626268E169237B0A4305
S31508000ED047EA43010A43A1684FF48077B94209D02B
S31508000EE0012907D05FF0000194F814C0BCF1010F86
S31508000EF002D00AE03946F7E7F3B1A36A43F02003C4
S31508000F00A362E36A43F00103E3622368D3F804C0EB
S31508000F102CF4694C4CEA010CC3F804C021688B68B0
S31508000F20DFF870C003EA0C0313438B60A168B9426B
S31508000F300BD0012909D00CE0DFF85CC0A3690CEBE3
S31508000F4043330B4343F40061DFE7218A0D05A5F51A
S31508000F5080152168CB6A23F470032B43CB62216882
S31508000F6089680E4B1940914208D1E662A16A21F0C0
S31508000F70020141F00101A162BDE8F081A06A20F0FA
S31508000F80020040F01000A062E06A40F00100E06252
S31508000F900120F1E7FDF7E1FF00E0FFFFFE0E1FFF6E
S31508000FA07047000000B585B00021009101910291BB
S31508000FB0039100681249884220D11248816941F498
S31508000FC000718161816901F400710491816941F0C0
S31508000FD0080181618069694600F0080004900120D3
S31508000FE0009003200190084800F0F8F80022114606
S31508000FF0122000F061FA122000F050FA05B000BD88
S315080010000024014000100240000C014070B504465F
S3150800101090F8240001280DD0012084F824002046E9
S31508001020FFF7D8FC02004FF0000005D084F8240032
S31508001030104670BD022070BDA16A40F6016399434F
S3150800104041F48071A162224D23682249AB4218D12E
S315080010500E6816F4702F14D0A66A46F48016A66297
S315080010600E68760505D5A66A26F4005646F4805617
S31508001070A662A66AF6040AD5E66A26F00606E662B7
S3150800108006E0A66A26F48016A6625E68E9E7E062CC
S3150800109084F824006FF0020018602068436843F063
S315080010A02003436020688368C3F34243072B05D1B6
S315080010B0A84208D1096811F4702F04D0816841F458
S315080010C080118160B4E7816841F4A001F9E7000066
S315080010D0002801400424014010B590F82110002290
S315080010E0022905D00421816380F82020012010BD43
S315080010F001680B6823F00E030B6001680B6823F088
S3150800110001030B6090F84030C46B012101FA03F328
S31508001110636080F8211080F82020104610BD00007A
S3150800112010B590F821100024022903D00421816308
S3150800113001243DE001680A6822F00E020A6001688F
S315080011400A6822F001020A601A4A0168914201D12E
S31508001150012121E0174A1432914201D110211BE0E6
S31508001160144A2832914201D1891515E0114A3C32B8
S31508001170914201D189140FE00E4A5032914202D1B0
S315080011804FF4803108E00B4A6432914202D14FF4A1
S31508001190801101E04FF08071064A083A516001213A
S315080011A080F82110002180F82010416B01B1884792
S315080011B0204610BD0800024070B5044600F010F93C
S315080011C00546601C02D004480078044400F008F97B
S315080011D0401BA042FAD370BD180300202DE9F84F32
S315080011E0DFF8B8910024A9F1040B23460F2709F16B
S315080011F0040AABF1040EC9E00125A5402A40AA421B
S315080012007DD1674ED1F804C0ACEB0608B44532D0A0
S3150800121014DCBCF1030F3AD009DCBCF1000F2AD06C
S31508001220BCF1010F1CD0BCF1020F31D11DE0BCF19D
S31508001230110F17D0BCF1120F2AD119E0B8F5881F83
S3150800124019D006DCB8F5803F15D0B8F5801F1FD138
S3150800125011E0B8F5001F0ED0B8F5041F18D10AE042
S31508001260CB6815E0CB681B1D12E0CB6808330FE08E
S31508001270CB680C330CE08B682BB1012B4FF00803BD
S3150800128003D0456104E0042302E0056100E0002381
S31508001290FF2A01D8064601E000F104064FEA840554
S315080012A001D9A5F12005D6F8008007FA05FC28EA39
S315080012B00C0803FA05F548EA0508C6F800804D68E3
S315080012C0ED0062D5374DAE6946F00106AE61AD69EF
S315080012D024F0030605F001050095334D06EB050CD1
S315080012E0DCF80850A607360F07FA06F825EA0805B7
S315080012F0DFF8B880404503D14FF0000817E044E016
S31508001300DFF8AC80404502D14FF001080FE0DFF866
S31508001310A480404502D14FF0020808E0DFF8988023
S31508001320404502D14FF0030801E04FF0040808FADF
S3150800133006F848EA0508CCF808804D68D9F8006030
S31508001340ED024D4601D5164300E096432E604D68E2
S31508001350DAF80060AD02554601D5164300E096431B
S315080013602E604D68DBF80060AD035D4601D5164377
S3150800137000E096432E604D68DEF80060ED03754682
S3150800138001D5164300E096432E60641C0D682A4674
S31508001390E5407FF431AFBDE8F88F0000080401404E
S315080013A00000111000100240000001400008014032
S315080013B0000C0140001001400014014080680840FC
S315080013C000D001207047C26821EA02030A4043EAB6
S315080013D00241016170470AB1016170470904FBE7E0
S315080013E00148806870470000180300200248816899
S315080013F0027811448160704718030020074810B529
S31508001400016841F010010160032000F075F80F2013
S3150800141000F006F800F024F8002010BD0020024075
S3150800142070B50D4D04464FF47A712878B1FBF0F08B
S315080014300A490968B1FBF0F000F052FB48B9102CD4
S3150800144007D200222146501E00F036F800206C60B4
S3150800145070BD012070BD0000180300201403002091
S315080014600C4808B5816941F001018161816901F083
S3150800147001010091C16941F08051C161C06900F064
S31508001480805000900448416821F0E06141F0007105
S31508001490416008BD0010024000000140002809DB39
S315080014A000F01F02012191404009800000F1E02070
S315080014B0C0F8001170470000F0B40E4B1B680C46CC
S315080014C0C3F30223C3F10705042D00D90425191D0A
S315080014D0072901D2002300E0DB1E012606FA05F1E2
S315080014E0491E214099409E40761E16403143F0BC65
S315080014F002F0E0B90CED00E0064900F007020868C2
S315080015004FF6FF03184040EA0220034A10430860DA
S31508001510704700000CED00E00000FA052DE9F843DD
S3150800152005460078354CC00754D0E0690026C0004F
S3150800153008D4E06940F08050E061E069012600F0D7
S31508001540805000902E480168C90512D4016880466B
S3150800155041F480710160FFF743FF074605E000BFCD
S31508001560FFF73EFFC01B642823D8D8F80000C00543
S31508001570F6D5206A10F4407021D0A98801F440718C
S3150800158081421CD0206A1F49012220F440700A605B
S3150800159000220A602062C00711D0FFF721FF074624
S315080015A041F2883808E000BFFFF71AFFC11B414522
S315080015B002D90320BDE8F883206A8007F4D5206A9B
S315080015C0696820F44070084320621EB1E06920F083
S315080015D08050E0612878800705D56068A96820F4FE
S315080015E04040084360602878C00605D56068E96809
S315080015F020F48000084360600020DBE7001002400A
S3150800160000700040400442422DE9F0470F460500AD
S3150800161061D0434E306800F00700B84209D23068FE
S3150800162020F0070038433060306800F00700B84201
S3150800163051D128683B4C810712D5400703D560680D
S3150800164040F4E06060602878000703D5606840F4DD
S31508001650605060606068A96820F0F0000843606028
S315080016602878C00728D06868012810D02168022881
S3150800167010D0890700292EDA616821F00301014399
S315080016806160FFF7ADFE804641F288390DE02168BA
S315080016908903EFE78901EDE7FFF7A2FEA0EB080152
S315080016A0494502D90320BDE8F0876068696800F0FB
S315080016B00C00B0EB810FEFD1306800F00700B8429C
S315080016C00BD9306820F0070038433060306800F0E6
S315080016D00700B84201D00120E5E72878400705D57C
S315080016E06068E96820F4E0600843606028780007CD
S315080016F006D56068296920F4605040EAC100606038
S3150800170000F038F86168084AC1F30311515CC84013
S315080017100649086006480068FFF782FE0020C2E70F
S315080017200020024000100240CE4F0008140300209B
S315080017301C0300200448054900684968044AC1F3A7
S315080017400221515CC8407047140300200010024073
S31508001750DE4F00080448054900684968044AC1F391
S31508001760C221515CC8407047140300200010024093
S31508001770DE4F00080E4A51680E4801F00C03042B90
S3150800178011D0082B0FD10C48C1F38343C903C05CA1
S315080017900AD55168084AC1F34041921E515C054A70
S315080017A05043B0FBF1F070470449484370470000C6
S315080017B00010024000127A00E84F000800093D00B8
S315080017C02DE9F84F040070D02078C04DC00749D0E5
S315080017D06868C0F38100012807D06868C0F38100F3
S315080017E0022809D16868C00306D52868800339D558
S315080017F060680028E7D035E06068B0F5803F0BD018
S3150800180010B1B0F5A02F11D0286820F480302860D8
S31508001810286820F4802002E0286840F48030286098
S31508001820606890B1FFF7DCFD06460AE0286840F4D8
S3150800183080202860F0E700BFFFF7D2FD801B6428F0
S3150800184073D828688003F7D50CE0FFF7C9FD06466C
S3150800185005E000BFFFF7C4FD801B6428F0D82868A0
S315080018608003F7D420789A4E80074FF001094FF08D
S31508001870000839D5686810F00C0F07D06868C0F3FF
S315080018808100022809D16868C00306D42868800741
S3150800189014D52069012808D110E02069B0B1C6F82E
S315080018A00090FFF79DFD074605E00AE1FFF798FD62
S315080018B0C01B0228C4D828688007F7D5286861693C
S315080018C020F0F80040EAC10028600DE0C6F8008064
S315080018D0FFF786FD074604E0FFF782FDC01B0228D6
S315080018E023D828688007F7D4207800072CD57948AC
S315080018F0A169D9B1C0F80090FFF772FD074604E068
S31508001900FFF76EFDC01B02280FD8686A8007F7D557
S3150800191071484FF4FA510068B0FBF1F0009000BF2F
S315080019200098411E0091FAD20EE080E0C0F80080CF
S31508001930FFF756FD074604E0FFF752FDC01B0228D5
S3150800194075D8686A8007F7D42078400760D5E869B3
S315080019500027C00008D4E86940F08050E861E869CB
S31508001960012700F0805000905C480168C90513D42F
S315080019700168834641F480710160FFF731FD8246B4
S3150800198006E000BFFFF72CFDA0EB0A0064284ED83E
S31508001990DBF80000C005F5D5E06801280AD008B1D3
S315080019A0052813D0286A20F001002862286A20F04A
S315080019B0040002E0286A40F001002862E06841F26B
S315080019C0883B98B1FFF70CFD82460BE0286A40F089
S315080019D004002862EEE700BFFFF702FDA0EB0A014C
S315080019E059455AD8286A8007F6D50CE0FFF7F8FC5F
S315080019F0824605E0FFF7F4FCA0EB0A0159454CD8EE
S31508001A00286A8007F6D41FB1E86920F08050E8619B
S31508001A10E06988B36968C1F38101022944D00228C4
S31508001A20C6F8608004D0FFF7DBFC044638E034E0F3
S31508001A30FFF7D6FC074604E0FFF7D2FCC01B0228D6
S31508001A402BD828688001F7D4206AB0F5803F05D1E5
S31508001A506868A16820F4003008436860D4E9080182
S31508001A600843696821F4741108436860C6F86090F1
S31508001A70FFF7B6FC044606E025E000BFFFF7B0FC1A
S31508001A80001B022809D828688001F7D51BE000BF8B
S31508001A90FFF7A6FC001B022802D90320BDE8F88F31
S31508001AA028688001F4D40EE00128F7D06868226A15
S31508001AB000F48031914204D1616A00F470108842C2
S31508001AC001D00120EAE70020E8E700000010024004
S31508001AD00000424280044242140300200070004085
S31508001AE010B5401EB0F1807F01D3012010BD4FF024
S31508001AF0E02460610F21601701F0DCFE0020A06180
S31508001B0007202061002010BD7047704770B590F817
S31508001B103C20012A26D0012480F83C40022280F885
S31508001B203D2003685A689D6822F070060A683243A9
S31508001B305A600D4B02689A4208D0B2F1804F05D020
S31508001B400A4B9A4202D00A4B9A4204D1496825F0B8
S31508001B5080031943916080F83D40002180F83C10CD
S31508001B60084670BD022070BD002C014000040040EC
S31508001B700008004010B5040003D094F83D0010B1E9
S31508001B8007E0012010BD002084F83C00204600F044
S31508001B901FF8022084F83D00211D206801F01EFC74
S31508001BA0012084F8460084F83E0084F83F0084F853
S31508001BB0400084F8410084F8420084F8430084F821
S31508001BC0440084F8450084F83D00002010BD00005C
S31508001BD008B500680B49884212D10B48816941F45F
S31508001BE0006181618069002200F40060009011465E
S31508001BF01920FFF761FCBDE808401920FFF74EBC25
S31508001C0008BD0000002C01400010024090F83D106D
S31508001C10012901D001207047022180F83D10016892
S31508001C20CA6842F00102CA6000680B49884208D0B7
S31508001C30B0F1804F05D00949884202D00849884248
S31508001C4004D1816801F00701062903D0016841F033
S31508001C500101016000207047002C0140000400408B
S31508001C600008004070B5044690F83C00002501289D
S31508001C7017D0012684F83C60022084F83D002068CD
S31508001C80826822F0770222F47F4282600868502830
S31508001C9038D00DDC20284FD005DC90B3102811D1A0
S31508001CA04AE0022070BD302846D040280AD13BE0E1
S31508001CB060282FD070280DD0B0F5805F03D0B0F51E
S31508001CC0005F12D0012584F83D60002084F83C00AE
S31508001CD0284670BDCB68D1E90121206801F0C7FB11
S31508001CE02068816841F0770109E0CB68D1E90121D4
S31508001CF0206801F0BCFB2068816841F4804181605E
S31508001D00E1E719E0CA684968206801F065FC5021D6
S31508001D10206806E0CA684968206801F06EFC602100
S31508001D20206801F0AEFBCEE7CA684968206801F072
S31508001D3053FC40212068F4E7226801461046F0E784
S31508001D4070472DE9F04104460068C66805694FF0FA
S31508001D500007A90713D5B10711D5F91E016101209E
S31508001D602077206880698007204602D0FFF7E8FFC1
S31508001D7004E000F0C5F8204600F076F927776807F2
S31508001D8016D5700714D521686FF004000861022083
S31508001D9020772068806910F4407F204602D0FFF73C
S31508001DA0CFFF04E000F0ACF8204600F05DF9277795
S31508001DB0280715D5300713D521686FF00800086184
S31508001DC0042020772068C0698007204602D0FFF7E4
S31508001DD0B7FF04E000F094F8204600F045F92777AD
S31508001DE0E80616D5F00614D521686FF010000861CC
S31508001DF0082020772068C06910F4407F204602D06A
S31508001E00FFF79EFF04E000F07BF8204600F02CF96F
S31508001E102777E80708D0F00706D021686FF0010099
S31508001E200861204600F070F9280608D5300606D560
S31508001E3021686FF0800008612046FFF765FE680696
S31508001E4008D5700606D521686FF04000086120465F
S31508001E5000F0A8FAA8060AD5B00608D521686FF0DA
S31508001E60200008612046BDE8F041FFF74EBEBDE8F8
S31508001E70F081000010B586B0002100910191029111
S31508001E8003911A4C03681A4902221A48A34219D127
S31508001E908B6943F008038B618969039201F0080195
S31508001EA004912021CDE900126946FFF797F91248F7
S31508001EB0416821F4406141F0E06141F4006141600C
S31508001EC006B010BD0D4CA342FAD18B6943F0080346
S31508001ED08B618969039201F0080104914021CDE9DB
S31508001EE000126946FFF77AF9EAE7000000040040A5
S31508001EF000100240000C01400000014000080040AC
S31508001F00704770B5044690F83C0000260D46012837
S31508001F100FD0012084F83C006AB1042A1DD0082A93
S31508001F202FD00C2A3FD00126002084F83C003046EA
S31508001F3070BD022070BD206801F0ACFA2068816986
S31508001F4041F0080181612068816921F004018161FD
S31508001F50206881692A69114311E0206801F0C2FAF4
S31508001F602068816941F4006181612068816921F4F2
S31508001F7080618161206881692A6941EA022181615B
S31508001F80D2E7206801F0DAFA2068C16941F0080151
S31508001F90C1612068C16921F00401C1612068C16975
S31508001FA02A69114311E0206801F0F4FA2068C16932
S31508001FB041F40061C1612068C16921F48061C16191
S31508001FC02068C1692A6941EA0221C161ACE710B5F6
S31508001FD0040003D094F83D0010B107E0012010BDBD
S31508001FE0002084F83C00204600F01EF8022084F801
S31508001FF03D00211D206801F0F1F9012084F8460012
S3150800200084F83E0084F83F0084F8400084F84100D4
S3150800201084F8420084F8430084F8440084F84500B4
S3150800202084F83D00002010BD08B50C4A01680C482C
S31508002030914207D1C16941F00201C161C06900F04E
S31508002040020009E0074A914207D1C16941F004013B
S31508002050C161C06900F00400009008BD000400409A
S3150800206000100240000800407047000010B5044602
S31508002070022249B104290ED0082913D094F8410048
S31508002080012816D0012010BD94F83E000128F9D188
S3150800209084F83E200FE094F83F000128F2D184F836
S315080020A03F2008E094F840000128EBD184F840204E
S315080020B001E084F841200122206801F0CBF90F499C
S315080020C02068884203D1426C42F400424264206888
S315080020D0884208D0B0F1804F05D00949884202D01D
S315080020E00849884204D1816801F00701062903D00E
S315080020F0016841F001010160002010BD002C01407B
S3150800210000040040000800402DE9F84F006898498F
S3150800211088427DD197480078002879D1964C0820C6
S315080021200090227801230021302000F01BFF207840
S3150800213038B3924C80212046FFF740F918B30020A7
S31508002140834640212046FFF739F9F0B100272021C0
S315080021502046FFF733F9D0B10020814610212046EA
S31508002160FFF72CF9A8B1002508212046FFF726F924
S3150800217088B100204FF000085FEA000A44460CD0F8
S315080021800EE000219BE00120DAE70127DFE70120C6
S31508002190E3E70125E8E70120ECE74FF04048012492
S315080021A04FF07E562DB931464046FEF731F8804647
S315080021B0641CB9F1000F00D1641C2FB931464046A2
S315080021C0FDF7D4FF8046641CBBF1000F06D14FF023
S315080021D080414046FDF7CAFF8046641C002C07DD97
S315080021E02046FEF713FA01464046FEF749F88046B0
S315080021F0644A6349032310680E4641F82080401C50
S3150800220090FBF3F403FB140010600020044600E082
S31508002210ACE056F82410FDF7A9FF641C032CF6DB86
S315080022205949FEF72DF8024649EA050357483B4344
S315080022304FF4E17140F2EE2608D055EA070329D09B
S3150800224035EA07014FF4D2744FD13DE028F0004239
S315080022500C46824218DD4E494046FDF7DFFFFEF781
S31508002260EBF9502801DD502002E06FF04F0122E023
S31508002270C0F5E17100F5E1746FE0FA216FE0B14253
S3150800228000DD3146B4426FDC09B2424800F0BFFCBB
S3150800229021B24CE022F000430C468342F4DD3E496D
S315080022A01046FDF7BBFFFEF7C7F9282801DD2820F1
S315080022B0DEE76FF027018842DADA0846D8E73548BC
S315080022C000F0A5FC002132E037EA050101D0002123
S315080022D029E025EA090139424FF4F074F7D125EAD5
S315080022E00B0101EA0901394201D02146E7E725EA4F
S315080022F00A0101EA09013942E9D10AEA050101EAB6
S315080023000901394011EA0B0F16D06FF0C7044FF4D4
S31508002310967512F1FF4F05D321461E4800F077FC4B
S31508002320294604E029461B4800F071FC2146BDE811
S31508002330F84F1A4800F06BBC4FF4C87128F00042F9
S315080023400C468242A0DD16494046FDF767FFFEF7B8
S3150800235073F9C0F5C87100F5C874FA298DDBFA2C33
S315080023608DDAFA248BE7FFE734468DE7BDE8F88F68
S31508002370002C014001000020000000200008014058
S31508002380240300208C00002000004040CDCC4C3EA9
S315080023900000F041900000200000704198000020E5
S315080023A00000A0417047704770470000F8B5016803
S315080023B004460868CA684B6910F00F0F4FF000050D
S315080023C059D003F0010602F49077374365D0C10768
S315080023D005D0D10503D5616C41F00101616441075F
S315080023E005D5D90703D0616C41F002016164810704
S315080023F005D5D90703D0616C41F004016164010772
S3150800240007D502F02001314303D0616C41F0080181
S315080024106164616C00293AD0800604D5900602D51D
S31508002420204601F02BF920684069616CC0F38010E2
S31508002430090700D460B3204601F0F9F8206840691E
S31508002440400621D52068143050E8001F21F04001CD
S3150800245040E80012002AF5D1E06BA8B16D49416346
S31508002460E06BFEF75DFE002811D0E06B416B01B012
S31508002470BDE8F040084783060FD593060DD52046DC
S31508002480BDE8F84001F0FAB82046FFF78DFFF8BD21
S315080024902046FFF789FF6564F8BD266B2023012EC9
S315080024A07CD1C6067AD5D60678D5086848680090DD
S315080024B048694FF00206400640D5E16B0868406857
S315080024C00004000CE8D0A28D8242E5D9E08588692F
S315080024D020282DD020680C3050E8001F21F4807188
S315080024E040E80012002AF5D12068143050E8001F91
S315080024F021F0010140E80012002AF5D120681430C5
S3150800250050E8001F21F0400140E80012002AF5D1EA
S3150800251084F84230256320680C3050E8001F21F00B
S31508002520100140E80012002AF5D1E06BFEF7D4FD51
S315080025306663A08DE18D401A81B22AE0A08DE18DF7
S31508002540401A81B2E08D0028A6D00029A4D02268BE
S315080025500C3252E8000F20F4907042E80007002F72
S31508002560F5D12068143050E8002F22F0010240E827
S315080025700027002FF5D184F84230256320680C30F7
S3150800258050E8002F22F0100240E80023002BF5D176
S3150800259066632046FFF707FFF8BDFFE705062BD55C
S315080025A0150629D594F841002128F5D1A068B0F57B
S315080025B0805F01D12069B0B1206A411C216221687F
S315080025C000784860E08C401E0004000CE084E3D1EB
S315080025D02068C16821F08001C1602068C16841F0A7
S315080025E04001C160D8E7206A0088C0F30800486047
S315080025F0206A801C2062E5E74006CDD55006CBD57B
S31508002600CA68204622F04002CA6084F8413000F0C9
S31508002610F3F8C1E71F36000870B5040004D094F833
S315080026204100002510B106E0012070BD84F8405035
S31508002630204600F023F8242084F841002068C16869
S3150800264021F40051C160204601F07AF8206801693A
S3150800265021F4904101612068416921F02A01416114
S315080026602068C16841F40051C1606564202084F87F
S31508002670410084F842006563002070BD70B586B0DD
S315080026800024009401940294039403682E482D4E66
S31508002690022103220515B34226D1836943F48043F8
S315080026A08361836903F480430493836943F00403D5
S315080026B083618069254E00F0040004900802CDE984
S315080026C00001039269463046FEF788FDCDE90054BD
S315080026D0694630460294FEF781FD00221146252000
S315080026E0FEF7EAFE252028E0194EB34227D1C36932
S315080026F043F48023C361C36903F480230493836985
S3150800270043F0080383618069CDE9005100F00800B1
S31508002710CDE903200F4D69462846FEF75FFDE8140C
S31508002720CDE90004694628460294FEF757FD0022C3
S3150800273011462720FEF7C0FE2720FEF7AFFE06B09B
S3150800274070BD00000038014000100240000801403A
S3150800275000480040000C014090F84230202B01D080
S315080027600220704721B11AB10023036301F044B86F
S315080027700120704770B504461048104D00682D1F9B
S31508002780A04209D1297805F11C0001F046FD012275
S3150800279029462046FFF7E0FF09480068A0420CD109
S315080027A007486978183001F038FD2046BDE87040C2
S315080027B002490122C91EFFF7CFBF70BDB000002035
S315080027C0E001002090F84130202B01D0022070470C
S315080027D079B172B101628284C284002141642121E7
S315080027E080F841100068C16841F08001C16000208E
S315080027F070470120704700002DE9F041154C054649
S3150800280000262068A84208D104F596710F46201DB7
S3150800281001F0CCFC80B184F82D610F4C2068A842E9
S3150800282008D104F596710F46201D01F0BFFC48B18A
S3150800283084F82D61BDE8F081012239462846FFF764
S31508002840C1FFEAE739462846BDE8F0410122FFF70D
S31508002850B9BF0000B0000020E0010020FEE700003C
S3150800286010B50E4800F0EEF90C48083000F0EAF909
S315080028700B4C002210212046FEF7ADFD074803C881
S31508002880FFF7F4FB002280212046FEF7A4FD03484B
S31508002890083003C8BDE81040FFF7E8BB90000020E9
S315080028A0000C01400A4910B58022A1F1940001F0FC
S315080028B066FC074980228039A1F12C04201D01F00D
S315080028C05EFC0122211F2068BDE81040FFF744BFC7
S315080028D05C0100200B4910B58022A1F1940001F09B
S315080028E04EFC084980228039A1F12C04201D01F0F4
S315080028F046FCA4F233112068BDE810400122FFF718
S315080029002BBF00008C0200204FF400510148FEF74F
S315080029105ABD0000001001404FF400610148FEF75F
S3150800292052BD0000000801403EB500211148009143
S3150800293001910F4A029102608160017301750124B9
S315080029404FF460220461C2614160FEF79BFA08B148
S3150800295072B6FEE70820CDE9000407200290694612
S315080029600448FEF78FF9002801D072B6FEE73EBD8F
S3150800297000240140300700202DE9F04F85B00024DF
S3150800298041480094019402940394816941F010012E
S315080029908161816901F010010491816941F020018A
S315080029A08161816901F020010491816941F0040186
S315080029B08161816901F004010491816941F008018E
S315080029C081618069DFF8C49000F008004FF4005573
S315080029D00490002229464846FEF7FDFCDFF8B0A021
S315080029E0AF10002239465046FEF7F5FCDFF8A4B0D2
S315080029F0002298215846FEF7EEFC4FF44078012253
S31508002A0041465846FEF7E7FC00950226012503963F
S31508002A10CDE9015469464846FEF7E0FB4FF44040CD
S31508002A20CDE90004694648460294FEF7D7FBFF2025
S31508002A30CDE90004694650460294FEF7CFFB4FF4F1
S31508002A407040CDE90004694658460294FEF7C6FB75
S31508002A5000970396CDE9015469465046FEF7BEFB3A
S31508002A609820CDE90005CDE9024669465846FEF7A5
S31508002A70B5FBCDE90085CDE9025669465846FEF70D
S31508002A80ADFB05B0BDE8F08F001002400010014014
S31508002A9000080140000C014010B586B00024184813
S31508002AA000940194029403940494144905940160D3
S31508002AB04721C0E9011440F2F311C0E9031480214B
S31508002AC0C0E90541FFF756F808B172B6FEE74FF4BC
S31508002AD08050009069460A48FFF7C4F808B172B6F4
S31508002AE0FEE7049404A906480594FFF70FF80028A2
S31508002AF001D072B6FEE706B010BD0000002C0140FA
S31508002B006007002030B589B0002407941C21684668
S31508002B100894FDF720FB1B4D194828604720C5E996
S31508002B20010440F2E730C5E903042846AC61FFF723
S31508002B304EFA08B172B6FEE7079407A91148089439
S31508002B40FEF7E4FF08B172B6FEE76020CDE900049F
S31508002B500294042269460B480494FFF7D2F908B197
S31508002B6072B6FEE704210748FFF780FA08B172B685
S31508002B70FEE7286884630348FFF77CF909B030BD8F
S31508002B8000040040A807002030B589B00024079447
S31508002B901C2168460894FDF7DEFA1B4D1948286083
S31508002BA04720C5E9010440F2E730C5E90304284691
S31508002BB0AC61FFF70CFA08B172B6FEE7079407A9ED
S31508002BC011480894FEF7A2FF08B172B6FEE7602026
S31508002BD0CDE900040294002269460B480494FFF7E5
S31508002BE090F908B172B6FEE700210748FFF73EFAEA
S31508002BF008B172B6FEE7286844630348FFF73AF956
S31508002C0009B030BD00080040F0070020FEE70029A3
S31508002C100DDBB1F57A7F01DB40F2E73142683AB164
S31508002C20042A09D00068082A006809D00164704798
S31508002C3000680068416370470068006881637047F0
S31508002C40C163704705C8002100682AB1042A05D067
S31508002C50082A05D00164704741637047816370474D
S31508002C60C1637047FEE7000010B50021084C0B460B
S31508002C70002004EBC1121354401CC0B28028FAD3BA
S31508002C80491CC9B20829F3D30249FF20087010BDB0
S31508002C9030030020A80000202DE9F0437F2833D810
S31508002CA03F2931D88418802C02D9C0F18002D2B2CB
S31508002CB0CC18402C02D9C1F14003DBB20126DFF85B
S31508002CC04C80DFF84C9087180B441BE0CA0898F82C
S31508002CD0005006FA02F42C4388F8004001F0070C6D
S31508002CE0044606FA0CF509EBC21207E012F804C00E
S31508002CF02CEA050C02F804C0641CE4B2A742F5D815
S31508002D00491CC9B28B42E1D8BDE8F083A80000206F
S31508002D103003002010B500204FF47A720021491CB8
S31508002D209142FCD3401C9042F8D3012000F08CF964
S31508002D30BDE81040012000F09DB970B50024064694
S31508002D40802525FA04F0304000D0012000F092F9E1
S31508002D50012000F079F9002000F076F9641CE4B24D
S31508002D60082CEED3012000F06FF9BDE87040002072
S31508002D7000F06AB910B5012000F07CF9012000F0D6
S31508002D8063F9002000F076F9BDE81040002000F055
S31508002D905BB910B5002000F06DF9012000F054F978
S31508002DA0BDE81040012000F065B910B5FFF7B2FF85
S31508002DB0AE2000F075F9D52000F072F9802000F0F9
S31508002DC06FF9A82000F06CF93F2000F069F9D320CC
S31508002DD000F066F9002000F063F9402000F060F981
S31508002DE0A12000F05DF9C82000F05AF9DA2000F0B9
S31508002DF057F9122000F054F9812000F051F9CF203C
S31508002E0000F04EF9D92000F04BF9F12000F048F90E
S31508002E10DB2000F045F9302000F042F9A42000F04C
S31508002E203FF9A62000F03CF98D2000F039F914206E
S31508002E3000F036F9AF2000F033F9FFF715FFBDE8CB
S31508002E40104000F0C9B80246012000E05043491E70
S31508002E50FCD2704710B50C4640F0B00000F020F9DF
S31508002E60102040EA141000F01BF904F00F00BDE82A
S31508002E70104000F015B9000008B5082B0DD0062B38
S31508002E800AD10A4B02EB420203EB4202C03A009215
S31508002E900823062200F00EF808BD054B03EB0212C4
S31508002EA0A2F50072102300920822F3E7EC49000805
S31508002EB0FC4300082DE9FC4F1F4615460C460646FE
S31508002EC07F284AD83F2C48D8FFF7E6FE781EC11758
S31508002ED0002300EB51700121DFF884B004F00709E4
S31508002EE001EBE00737E0002031E031187F2930D8C0
S31508002EF003EBD40ABAF1070F2FD80BEBCA1E03FB54
S31508002F0005F21EF801C00192DDF82C808044CDF848
S31508002F10008012F8082002FA09F24CEA020C0AF1BB
S31508002F2001020EF801C0072A0FD80EEB0108DDE9E9
S31508002F3000C198F8802011F80CC0C9F108012CFAD4
S31508002F4001FC42EA0C0288F88020401CC0B2A84264
S31508002F50CBD35B1CDBB29F42C5DCBDE8FC8F00000F
S31508002F60300300202DE9F04700241D4690468A4686
S31508002F7081460A27089E14E0291B0A20491EFFF7E6
S31508002F8062FFB8FBF0F0B0FBF7F107FB110204FB98
S31508002F900690C0B2334651463032FFF76DFF641CC7
S31508002FA0E4B2AC42E8D3BDE8F0872DE9F0411E460D
S31508002FB0154688460746002408E004FB0670C0B29A
S31508002FC033464146FFF758FF641CE4B22A5D002ADF
S31508002FD0F3D1BDE8F081000070B5094D0024002149
S31508002FE02046FFF737FF05EBC410802100F069F88B
S31508002FF0641CE4B2082CF2D302490020087070BDA4
S3150800300030030020A800002070B50D4D0124687813
S315080030102A7804FA00F111420ED00021FFF71AFFB0
S315080030200848697800EBC110802100F04AF86878F2
S3150800303084402878A04328706878401C687070BD62
S31508003040A80000203003002008B502464FF480711E
S315080030500748FEF7C0F9002003E000BFBDF80000EE
S31508003060401CADF80000BDF800000328F6D308BDE3
S31508003070000C014008B502464FF400710748FEF7F8
S31508003080AAF9002003E000BFBDF80000401CADF817
S315080030900000BDF800000328F6D308BD000C014067
S315080030A010B50446FFF766FE7820FFF746FE0020B7
S315080030B0FFF743FE2046FFF740FEBDE81040FFF746
S315080030C068BE70B50D460646FFF754FE7820FFF732
S315080030D034FE4020FFF731FE002404E0305DFFF7A0
S315080030E02CFE641CE4B2AC42F8D3BDE87040FFF78E
S315080030F050BE00001FB501A800F0BAF80021082349
S3150800310017A20846FFF751FF082317A2102100202F
S31508003110FFF74BFF082316A220210020FFF745FFE3
S31508003120082315A220214820FFF73FFF134808244B
S3150800313000940278012300213020FFF713FF0823AB
S3150800314001AA10212820FFF730FFFDF7A9FC024647
S315080031500423202128200094FFF704FF1FBD000048
S31508003160464C41473A00000053454E3A00000000DD
S315080031704241543A000000006D560000000000204D
S31508003180704700002DE9F04F87B0FDF789FC2C4CFD
S31508003190834601212046FEF711F900283FD000207A
S315080031A0814602212046FEF709F9002839D0002079
S315080031B0804604212046FEF701F970B30025082150
S315080031C02046FEF7FBF848B3002610212046FEF7F6
S315080031D0F5F860B3002720212046FEF7EFF840B344
S315080031E0002440211648FEF7E9F820B3002082465D
S315080031F080211348FEF7E2F8F8B10022CDE900472E
S3150800320003A9029681E8200B0E48534601780EA0C2
S3150800321000F040FB07B0BDE8F08F04E005E00120B0
S31508003220BEE70120C4E70125C9E70126CDE7012746
S31508003230D1E70124D5E70120D9E70122DEE700001E
S31508003240000801400000002072756E3D25752C733C
S31508003250656E3D257525752575257525752575258F
S315080032607525752C626174743D25750D0A0000007C
S3150800327070B5284D044680212846FEF79FF8A8B366
S315080032803020207040212846FEF798F878B3302081
S31508003290607020212846FEF791F848B33020A070C8
S315080032A010212846FEF78AF848B33020E070082136
S315080032B02846FEF783F820B33020207104212846DB
S315080032C0FEF77CF8F8B13020607102212846FEF737
S315080032D075F8D0B13020A07101212846FEF76EF8A6
S315080032E0A8B13020E0710020207270BD01E002E034
S315080032F003E03120C5E73120CAE73120CFE7312086
S31508003300D4E73120D9E73120DEE73120E3E7312061
S31508003310E8E70000000801407047000070B5FEF7B6
S3150800332065F800200A4B012500EB400403EB8401F5
S315080033304A8842B1521E1204120C4A8003D18A8866
S315080033404A8003F82450401C80B20B28ECD370BD89
S315080033500800002030B593B028216846FCF7FBFE2C
S3150800336014210AA8FCF7F7FE002501200F951095F1
S315080033701195010412958DE8230004904FF4E0108E
S31508003380CDE90810022407946846FEF719FA08B131
S3150800339072B6FEE70AA90F2081E831004FF4806073
S315080033A0CDE90D0502210AA8FEF72EF908B172B675
S315080033B0FEE74FF4004011900F940FA8FEF7AEF801
S315080033C0002801D072B6FEE713B030BD7047000082
S315080033D00148FEF7B6BC000060070020F0B5026899
S315080033E0194B1A4C1A4D4FF08047984205D0B842EF
S315080033F003D0A04201D0A84203D122F070064A6841
S315080034003243984205D0B84203D0A04201D0A84220
S3150800341003D122F44074CA6822434C6922F0800220
S31508003420224302608A68C2620A688262984201D1AF
S3150800343009690163012141610169C90703D001696D
S3150800344021F001010161F0BD002C0140000400409B
S315080034500008004010B501F01F030121046A9940D5
S315080034608C430462016A9A401143016210BD10B58B
S31508003470846842EA032224F47F440A432243826092
S3150800348010BD826822F070020A4342F0070181608B
S315080034907047000030B5036A026A22F00102026230
S315080034A04268846924F073050C682C4323F00205EE
S315080034B08B682B430A4DA8420BD123F00805CB682D
S315080034C022F440722B434D6923F0040315438A699D
S315080034D02A434260846149684163036230BD000043
S315080034E0002C014030B5026A036A23F01003036218
S315080034F0436884690D6824F4E64444EA05248D6823
S3150800350022F0200242EA05120B4DA8420ED1CD68E0
S3150800351022F0800242EA05124D6923F4406343EA29
S3150800352085038D6922F0400243EA8503436084617E
S3150800353049688163026230BD002C014030B5036AD8
S31508003540026A22F4807202624268C46923F4007334
S3150800355024F073050C682C438D6843EA05230C4D4B
S31508003560A8420ED1CD6823F4006343EA05234D69CA
S3150800357022F4405242EA05128D6923F4806342EA36
S3150800358005124260C4614968C163036230BD000028
S31508003590002C014030B5046A026A22F480520262A5
S315080035A04268C3690D6823F4E64343EA05238D6838
S315080035B024F4005444EA0534064DA84204D14D6962
S315080035C022F4804242EA85124260C3614968016476
S315080035D0046230BD002C014010B5036A046A24F069
S315080035E001040462846924F0F00444EA021423F016
S315080035F00A020A438461026210BD10B5036A046AAE
S3150800360024F010040462846923F0A00324F47044AF
S3150800361044EA023243EA01118261016210BD10B523
S31508003620406A0021C185C184FEF7BEFE10BD01684F
S315080036300C3151E8002F22F4907241E80023002B48
S31508003640F5D10168143151E8002F22F0010241E852
S315080036500023002BF5D1016B012909D101680C3132
S3150800366051E8002F22F0100241E80023002BF5D183
S31508003670202180F8421000210163704708B590F8B0
S315080036804210222901D0022008BD82684FF48053D7
S315080036909A4201D1016921B1816A9A421BD04AB185
S315080036A00AE00268816A5268C2F308020A80816ADF
S315080036B0891C08E0026972B10268526802F07F024A
S315080036C00A70816A491C8162C18D491E0904090C68
S315080036D0C18503D01BE002685268F1E70168CA6831
S315080036E022F02002CA600168CA6822F48072CA60A1
S315080036F001684A6922F001024A61202180F84210D5
S3150800370000214163026B012A03D0FFF733F800203A
S3150800371008BD016301680C3151E8002F22F0100240
S3150800372041E80023002BF5D101680A68D20602D5C4
S315080037300A6849680091818DFEF735FEE7E70000C3
S3150800374070B5044600680169E26821F440511143E6
S3150800375001612169A0680843616908432168CA684C
S3150800376041F20C639A430243CA6020684169A26920
S3150800377021F44071114341611E492068884202D1F3
S31508003780FDF7E8FF01E0FDF7D5FF00EBC00101EB0F
S315080037900012606864218000B2FBF0F3B3FBF1F31A
S315080037A06FF018067343B2FBF0F5B2FBF0F605EBC3
S315080037B08305322303EB0515B5FBF1F5B6FBF1F6E8
S315080037C005F0F00505EB0615B2FBF0F6B2FBF0F0D6
S315080037D0B0FBF1F06FF01802504306EB800003EBE4
S315080037E00010B0FBF1F0216800F00F002844886053
S315080037F070BD00000038014081628285C2850021C3
S315080038004164222180F84210016921B10168CA6821
S3150800381042F48072CA6001684A6942F001024A614C
S315080038200068C16841F02001C160002070470000AF
S315080038300148FEF7BBBD0000380800200148FEF726
S31508003840B5BD00008008002000B591B04022694649
S31508003850054800F07DFD021E03DD6946024800F0BA
S31508003860A0FD11B000BD0000B000002000B591B069
S3150800387040226946054800F06BFD021E03DD6946D5
S31508003880024800F08EFD11B000BD0000E0010020E6
S31508003890FEE700000FB4054B10B503A9044A0298C9
S315080038A000F0EAF810BC5DF814FB00008D42000831
S315080038B0100300200907090E002804DB00F1E020A8
S315080038C080F80014704700F00F0000F1E02080F83F
S315080038D0141D704702E008C8121F08C1002AFAD151
S315080038E070477047002001E001C1121F002AFBD172
S315080038F0704700002DE9FF5F82B00021DDE9043042
S31508003900020DDDF840B0034318D044F61050A2F279
S31508003910FF3242431514119801281FD0A5EB0B005E
S31508003920401C5FEA000A4FF000064E4FDFF8389158
S31508003930B046504615D5CAF1000413E01198012483
S315080039404AA3012801D16FEA0B010298119AC0E92E
S315080039500031C0E9024206B0BDE8F09FCBF1000095
S31508003960DFE704460021404A491842EB0450CDE9F6
S31508003970001012E0E00707D032463B46404649466B
S31508003980FCF763FD8046894632463B461046194693
S31508003990FCF75BFD06460F466410002CEAD1DDE90C
S315080039A00401DDE90023BAF1000F06DAFCF74DFD44
S315080039B042464B46FCF749FD05E0FCF7B8FD424692
S315080039C04B46FCF7B4FD04460E460022284BFCF78E
S315080039D065FE03D84FF0FF30014607E00022254B6D
S315080039E020463146FCF78AFCFCF76CFF102409E0F8
S315080039F0002C0ADB0A220023FCF77EFE039B3032EA
S31508003A001A55641E50EA0102F2D1641C039AC4F1E5
S31508003A1011031444119A012A03D0012208430DD137
S31508003A200AE0084304D000204FF0110B119072E70A
S31508003A30A3EB0B056D1E0DE05B4504DD4FF00002A0
S31508003A4005F1010504E003DA4FF00002A5F10105CE
S31508003A50002AECD002981199C0E90231C0E9004564
S31508003A6079E70000000014400000F03F3000000035
S31508003A700000F0430000E03F2DE9FF4F95B09A465D
S31508003A80884606460025EEE1252877D100242746F4
S31508003A90F94A0121039400E0044316F8013F203B4C
S31508003AA001FA03F01042F7D130782A2811D06FF0C6
S31508003AB02F033078A0F13002092A16D8039A44F069
S31508003AC0020402EB820203EB42021044761C0390C6
S31508003AD0EFE758F8042B0392002A03DA504244F41D
S31508003AE00054039044F00204761C30782E2816D130
S31508003AF016F8010F44F004042A280DD06FF02F029F
S31508003B003078A0F13003092B09D807EB870302EBBD
S31508003B104303C718761CF3E758F8047B761C3078FD
S31508003B206C280FD006DC4C2817D068280DD06A28D8
S31508003B3014D104E0742810D07A280FD10DE044F48B
S31508003B4000140AE044F4801401E044F44014727846
S31508003B50824202D104F58014761C761C30786628D9
S31508003B600BD013DC582877D009DC002875D04528F7
S31508003B70F6D04628F4D047281AD193E118E06328EE
S31508003B8035D0642879D0652812D18BE1702873D096
S31508003B9008DC6728F1D069286FD06E280DD06F2809
S31508003BA006D1ACE073282CD0752874D0782853D069
S31508003BB05246179990476D1C54E1C4F302500228E7
S31508003BC009D003280DD0D8F8001004280DD00D60B0
S31508003BD008F1040846E1D8F80010EA17C1E90052CE
S31508003BE0F6E7D8F800100D80F2E70D70F0E718F840
S31508003BF0041B8DF8001000208DF80100EB4601200B
S31508003C0003E058F804BB4FF0FF3061074FF000019E
S31508003C1002D40DE009F101018946B9420FDA81455E
S31508003C20F8DB1BF809100029F4D108E009F10101B5
S31508003C3089468142FADB1BF809100029F6D1039858
S31508003C405346A0EB090721463846179A00F080FA32
S31508003C50284400EB090507E044E008E10DE01BF8FD
S31508003C60010B524617999047B9F10109F7D2534605
S31508003C7021463846179AF2E039E00A21C4F302527F
S31508003C804FF0000B0091022A06D058F8040BC11712
S31508003C90032A09D00AE023E008F1070020F007020A
S31508003CA0F2E80201904605E000B2C117042A01D1E4
S31508003CB040B2C117002906DA0A460021404261EBE4
S31508003CC002012D2202E0220504D52B228DF80420BC
S31508003CD0012203E0E20701D02022F7E7914657E0E8
S31508003CE00A2100E010214FF0000B00910BE0102193
S31508003CF04FF0000B44F004040827009103E0082065
S31508003D004FF0000B0090C4F30252022A05D058F86F
S31508003D10040B0021032A08D008E008F1070020F068
S31508003D200702F2E80201904603E080B2042A00D1B5
S31508003D30C0B24FF0000922072AD53278702A07D078
S31508003D40DDF800C08CF0100C5CEA0B0C05D00EE018
S31508003D5040228DF80420012208E050EA010306D02B
S31508003D6030238DF804308DF8052002229146009BF9
S31508003D7083F0080353EA0B030AD150EA010201D182
S31508003D80620705D530228DF804204FF001097F1E01
S31508003D903278582A04D039A20C920CAA02920BE067
S31508003DA03BA2F9E75B46009AFCF7A6FC0C9B9B5CDA
S31508003DB0029A521E0292137050EA0102F2D1029838
S31508003DC004A9081A00F1200B600702D524F48034F0
S31508003DD000E001275F4502DDA7EB0B0000E00020AD
S31508003DE000EB0B01009003984944401A0390E00346
S31508003DF006D453462146179A039800F0A9F90544B4
S31508003E00002706E001A85246C05D179990476D1C29
S31508003E107F1C4F45F6DBE0030CD553462146179A1F
S31508003E20039800F095F9054404E0302052461799A6
S31508003E3090476D1C0099481E00900029F5DC08E0A3
S31508003E400298029952460078491C029117999047A0
S31508003E506D1CBBF10001ABF1010BF1DC5BE100F07D
S31508003E6065F90544761C307800287FF40DAE19B044
S31508003E702846BDE8F08F00000928010030313233AA
S31508003E803435363738396162636465660000000088
S31508003E903031323334353637383941424344454672
S31508003EA000000000600700D4062708F1070020F08C
S31508003EB00700F0E80223804603F0004C5FEA0C0096
S31508003EC001D097A009E0200501D596A005E0E007F6
S31508003ED001D095A001E0AFF24C001390307823F0A2
S31508003EE0004365280CD006DC452809D046281DD095
S31508003EF047287FD13BE0662818D067287AD136E074
S31508003F000021112F01DB112000E0781CCDE900010A
S31508003F1004A90CA8FFF7EEFCDDE90D010C9A4FF099
S31508003F20000B07F10109109200914EE04FF0004096
S31508003F300097CDE9011004A90CA8FFF7DBFCDDE921
S31508003F400D020C9B0F994FF0000B914610930092AF
S31508003F5011B9791C00EB0109B7EB090003D4C0F1CC
S31508003F60FF3B07F10109A9EB0700019042E0012F89
S31508003F7000DA01270021112F01DD112000E0384663
S31508003F80CDE9000104A90CA8FFF7B4FCDDE90D0191
S31508003F900C9A00914FF0000BB946109221070FD4E6
S31508003FA0009A4A4503DA914601E0A9F10109B9F1F7
S31508003FB0010F05DD109AA9F10101515C3029F4D0F1
S31508003FC0B84202DA10F1040F03DA0121CDE9011033
S31508003FD010E0002803DC8344A9EB000102E0411C41
S31508003FE0494500DD8946A0EB0B00401C01904FF0C7
S31508003FF000400290200705D40198484502DB4FF09F
S31508004000FF30019000208DF84B0002980DF14B0708
S31508004010B0F1004F25D002200C902B200D9002986D
S3150800402000280CDA404202902D200D9007E00A2164
S315080040300298FCF74BFB3031029007F8011D0C99EA
S31508004040481E0C900029F2DC02980028EFD1791E50
S315080040500D980870307800F0200040F0450007F809
S31508004060020D11A8C01BC01D02901398007800B15C
S31508004070012000EB0901019801EBE0710298014467
S315080040800398401A401E0390E00306D4534621467F
S31508004090179A039800F05CF805441398007818B14D
S315080040A05246179990476D1CE00323D5534621467F
S315080040B0179A039800F04CF805441BE0BBF1000F73
S315080040C007DB0098584504DD1098179910F80B007F
S315080040D001E0179930205246904701980BF1010BE1
S315080040E0401E05F10105019004D12E20524617996C
S315080040F090476D1CB9F10001A9F10109DEDC05E064
S3150800410017F8010B5246179990476D1C0299481EDD
S3150800411002900029F4DC53462146179A03989EE636
S315080041202D0000002B000000200000002DE9F041C2
S31508004130044600251E461746880404D405E0394679
S315080041402020B0476D1C641EF9D52846BDE8F081CD
S315080041502DE9F041044600251E469046C80301D5C0
S31508004160302700E02027880404D505E04146384674
S31508004170B0476D1C641EF9D52846BDE8F08148B1E4
S3150800418041B13AB1C0E9001200218160C160016104
S31508004190084670474FF0FF30704718B1016940680C
S315080041A0814201D3012070470020704798B191B130
S315080041B0026982B183680268D25C0A70D0E901217B
S315080041C0491CB1FBF2F302FB131181600169491E18
S315080041D00161002070474FF0FF30704770B530B16D
S315080041E029B103699A4200D31A4600230EE000203B
S315080041F070BD85680468645DCC54D0E90154641CBC
S31508004200B4FBF5F605FB16445B1C84609342F0D3B9
S315080042100169891A0161104670BD18B143680269BF
S315080042209A4202D34FF0FF307047C3680268D154F0
S31508004230C1684268491CB1FBF2F302FB1311C16065
S315080042400169491C01610020704770B540B139B158
S31508004250046943681B1B9A4200D31A4600230EE0E2
S31508004260002070BDC6680568CC5CAC55C468456856
S31508004270641CB4FBF5F605FB16445B1CC46093424C
S31508004280F0D3016911440161104670BD10B50446AA
S31508004290C1B2044800F05FF8E1B2034800F05BF8E9
S315080042A0204610BDB0000020E0010020FDF7A6F86A
S315080042B0FFF750F8FEF760FBFEF736FB214820496A
S315080042C04FF4E13600250160C0E901650C24C5609C
S315080042D0C0E904548561C561FEF79EF908B172B656
S315080042E0FEE71848184948300160C0E90165C5600D
S315080042F0C0E904548561C561FEF78EF908B172B646
S31508004300FEE7FEF741FCFEF7FDFBFEF7C5FBFCF7F3
S31508004310CDFB0C48D838FDF779FC0C4E5FF000044D
S3150800432004EB440716F8270028B106EB87008068D7
S31508004330804706F82750641CA4B20B2CF0D3EDE78F
S3150800434000380140380800200048004008000020D6
S315080043501830FFF743BF70B504460D46001DFFF73A
S315080043601CFF10B14FF0FF3070BD2946201DFFF726
S3150800437054FF94F82D0160B9012084F82D0104F545
S3150800438096710D46201DFFF711FF20B1002084F815
S315080043902D01002070BD012229462068FEF712FA79
S315080043A0F7E770B5044615460E46001DFFF7F5FEFD
S315080043B010B14FF0FF3070BD2A463146201DFFF779
S315080043C044FF050003D094F82D0110B10EE000203B
S315080043D070BD012084F82D0104F596710E46201D46
S315080043E0FFF7E4FE20B1002084F82D01284670BDB1
S315080043F0012231462068FEF7E5F9F7E700000000DC
S31508004400000000000000000000000000000000F8A6
S3150800441000000000000000333000000000160E0007
S31508004420160E0000000000000000000040C07840A2
S31508004430C0784000043F04043F040400007088FC70
S3150800444008300000001820FF211E0000F008F000C8
S31508004450E018000000211C031E211E0000F0088839
S31508004460700000001E2123241927211000000016C1
S315080044700E0000000000000000000000000000E040
S315080044801804020000000007182040000002041863
S31508004490E00000000040201807000000404080F0BF
S315080044A0804040000202010F01020200000000F0F5
S315080044B0000000000101011F0101010000000000C9
S315080044C00000000000B070000000000000000000BE
S315080044D000000000000101010101010100000000C7
S315080044E0000000000030300000000000000000005E
S315080044F080601804006018060100000000E010083B
S315080045000810E000000F102020100F00001010F80F
S31508004510000000000020203F20200000007008084E
S3150800452008887000003028242221300000300888CE
S31508004530884830000018202020110E000000C020F6
S3150800454010F8000000070424243F240000F8088817
S31508004550880808000019212020110E0000E01088A4
S3150800456088180000000F112020110E0000380808D6
S31508004570C83808000000003F0000000000708808E6
S3150800458008887000001C222121221C0000E0100867
S315080045900810E0000000312222110F00000000C0C0
S315080045A0C00000000000003030000000000000C01D
S315080045B0C0000000000080B07000000000008040CD
S315080045C02010080000010204081020004040404066
S315080045D040404000040404040404040000081020B9
S315080045E040800000002010080402010000704808FE
S315080045F00808F0000000003036010000C030C82866
S31508004600E810E0000718272423140B000000C03820
S31508004610E0000000203C23020227382008F888889A
S3150800462088700000203F202020110E00C0300808A6
S3150800463008083800071820202010080008F808087D
S315080046400810E000203F202020100F0008F8888876
S31508004650E8081000203F20202320180008F8888842
S31508004660E8081000203F200003000000C0300808BA
S315080046700838000007182020221E020008F8080043
S315080046800008F808203F210101213F20000808F80A
S31508004690080800000020203F20200000000008082D
S315080046A0F8080800C08080807F00000008F888C0ED
S315080046B028180800203F20012638200008F808009E
S315080046C000000000203F20202020300008F8F800D5
S315080046D0F8F80800203F003F003F200008F830C0E7
S315080046E00008F808203F200007183F00E0100808D7
S315080046F00810E0000F10202020100F0008F8080806
S315080047000808F000203F210101010000E010080818
S315080047100810E0000F18242438504F0008F888883D
S3150800472088887000203F2000030C3020007088081D
S31508004730080838000038202121221C00180808F82B
S31508004740080818000000203F2000000008F80800AC
S315080047500008F808001F202020201F00087888007D
S3150800476000C83808000007380E010000F80800F8ED
S315080047700008F800033C0700073C03000818688097
S315080047808068180820302C03032C30200838C8000D
S31508004790C83808000000203F20000000100808085C
S315080047A0C83808002038262120201800000000FEFE
S315080047B0020202000000007F40404000000C30C0AA
S315080047C000000000000000010638C00000020202D6
S315080047D0FE000000004040407F0000000020100856
S315080047E0040810200000000000000000000000007F
S315080047F0000000008080808080808080000204089D
S31508004800000000000000000000000000000080809A
S31508004810808000000019242222223F2008F8008008
S3150800482080000000003F112020110E0000000080CB
S3150800483080800000000E112020201100000000805A
S315080048408088F800000E112020103F20000080808C
S3150800485080800000001F222222221300008080F0A0
S31508004860888888180020203F2020000000008080CB
S3150800487080808000006B94949493600008F8008010
S3150800488080800000203F210000203F20008098986B
S31508004890000000000020203F2020000000000080CB
S315080048A09898000000C08080807F000008F800000B
S315080048B080808000203F24022D302000000808F860
S315080048C0000000000020203F20200000808080801B
S315080048D080808000203F20003F20003F008080002D
S315080048E08080000000203F2100203F2000008080BB
S315080048F080800000001F202020201F00808000806C
S315080049008000000080FFA12020110E00000000801A
S3150800491080808000000E112020A0FF80808080000B
S315080049208080800020203F21200001000000808038
S31508004930808080000033242424241900008080E02D
S31508004940808000000000001F2020000080800000FA
S3150800495000808000001F202020103F2080808000DB
S315080049600080808000010E300806010080800080EB
S31508004970008080800F300C030C300F000080800010
S31508004980808080000020312E0E312000808080003B
S315080049900080808080818E701806010000808080EB
S315080049A0808080000021302C222130000000000089
S315080049B0807C020200000000003F4040000000002A
S315080049C0FF00000000000000FF0000000002027C5B
S315080049D0800000000040403F00000000008040408A
S315080049E080000080000000000001010000000000B7
S315080049F000000000002F0000000007000700001458
S31508004A007F147F1400242A7F2A1200231308646265
S31508004A1000364955225000000007000000001C22FD
S31508004A204100000041221C000014083E081400083A
S31508004A30083E0808000000A06000000808080808EA
S31508004A40000060600000002010080402003E514982
S31508004A50453E0000427F4000004261514946002120
S31508004A6041454B31001814127F100027454545393A
S31508004A70003C4A4949300001710905030036494995
S31508004A80493600064949291E00003636000000004E
S31508004A905636000000081422410000141414141499
S31508004AA0000041221408000201510906003E49553A
S31508004AB0592E007C1211127C007F49494936003E66
S31508004AC041414122007F4141221C007F4949494119
S31508004AD0007F09090901003E4149497A007F080813
S31508004AE0087F0000417F4100002040413F01007FD0
S31508004AF008142241007F40404040007F020C027F9C
S31508004B00007F0408107F003E4141413E007F0909AD
S31508004B100906003E4151215E007F091929460046D3
S31508004B20494949310001017F0101003F4040403FAA
S31508004B30001F2040201F003F4038403F00631408F4
S31508004B4014630007087008070061514945430000CF
S31508004B507F414100000204081020000041417F0007
S31508004B6000040201020400404040404000000102E7
S31508004B700400002054545478007F484444380038D0
S31508004B804444442000384444487F00385454541858
S31508004B9000087E0901020018A4A4A47C007F08046A
S31508004BA004780000447D4000004080847D00007F3A
S31508004BB0102844000000417F4000007C0418047857
S31508004BC0007C0804047800384444443800FC242453
S31508004BD024180018242418FC007C0804040800483B
S31508004BE05454542000043F444020003C4040207C5C
S31508004BF0001C2040201C003C4030403C004428104B
S31508004C002844001CA0A0A07C004464544C44000026
S31508004C10087F41000000007F00000000417F080077
S31508004C20000804081008000000000000FF4040408B
S31508004C304040400000004040404040407F404040E7
S31508004C4040404040400000FC0000FF0002E22222F3
S31508004C50FE2222E20200008740300F00001F0000FB
S31508004C60FF08100F000020202020202020FF2020F1
S31508004C7020202020200080804020100C0300030CF8
S31508004C80102040808000008060F807000424242556
S31508004C90262424240400010000FF000000F94949E5
S31508004CA0494949F900001010D0FF901000FE020291
S31508004CB002FE00000000040300FF0083601F0000DE
S31508004CC0003F404078004030119690909196909021
S31508004CD0981413503000040404040444847E060522
S31508004CE004040404040000FE225A86100C24242519
S31508004CF0262424140C0000FF0408078041310F0104
S31508004D00013F4141710000101010D07010101010B2
S31508004D10080808F808080808F8080C080000004001
S31508004D20300CFF020202FE02080808FF08080808FD
S31508004D30FF08080C0800000000000F0202024720C6
S31508004D4010080701000000003F00000000000000F6
S31508004D5020202020E0E0202020303020101010F005
S31508004D60F01010101010F0F01018100000000000DD
S31508004D700000E0FCEF21202020F02080808080FFCA
S31508004D80FF8080808080FFFF8080C0800000000850
S31508004D90040300FFFF80808080FF00000000C0FF42
S31508004DA01F0000000000FF000000000000000000D7
S31508004DB00000000707000000402330180C06030017
S31508004DC00000000000003F3E000000000000000058
S31508004DD000000000000000000000000000000000C5
S31508004DE000000000008080000000808080808080B5
S31508004DF080808080808080808080808080808080A5
S31508004E0080808080E0F0E0C0000000000000000024
S31508004E100002060E0E0606060606F6FEFE7E0606C6
S31508004E20060606060707070706040001030101012F
S31508004E3001FFFFFF01010101010101010101FFFF5E
S31508004E40FF0101010101010101000000000000004D
S31508004E500000000000000000E0FEFF1F0300000045
S31508004E6000000000C0808000000000000000000074
S31508004E7000FFFFFF00000000000000000000FFFF29
S31508004E80FF00000000000000000000000000000015
S31508004E900000000000E0F87FFFFFFFFF03030303A5
S31508004EA0030303FFFFFFFF0310307030303030304C
S31508004EB030FFFFFF30303030303030303030FFFFD9
S31508004EC0FF30303030383C3C3830200000000000DD
S31508004ED00060301C0F030100FFFFFFFF0000000009
S31508004EE0000000FFFFFFFF000000000000000000B8
S31508004EF0E0FFFF7F00000000000000000000FFFF49
S31508004F00FF00000000000000000000000000000094
S31508004F100000000000000000FFFFFFFF6060606007
S31508004F20606060FFFFFFFF00000000000080E0FCFB
S31508004F30FF3F070000000000000000000000FFFF20
S31508004F40FF00000000000000000000000000000054
S31508004F5000000000000000003F1F1F0F00000000B7
S31508004F600000000707030380C0E0703C1E0F07031C
S31508004F700000000000000000000000000000FFFF25
S31508004F80FF00000000000000000000000000000014
S31508004F900000000000000000000000000000000003
S31508004FA0000010080C0603030100000000000000C2
S31508004FB000000000000000000000000000100F07BD
S31508004FC007000000000000000000000000000000CC
S31508004FD0000000000000010203040607080900009B
S31508004FE0000001020304010202030405060708097A
S31508004FF00A0B0C0D0E0F10101850000800000020A8
S31508005000240300001809000884500008240300201F
S31508005010A4090000E4380008A11201320413710B38
S315080050206A080C3AD90C1205320A2B09300C1203FD
S3150800503032643A39183A040C8B49380C9A6D0C4B81
S315080050405D0C0C23F4014B510A3C1BE803484A2922
S315080050500C23D0075A190C29182B85310C2113A8B3
S31508005060072A207C1AF00801140B1438081801FFC7
S31508005070011913800802FF20013213127A320172D5
S30908005080100000000E
S705080000ED05
