S31508000000880D002005010008453100085D2A000812
S3150800001095300008690B0008D94000080000000068
S31508000020000000000000000000000000153B00086A
S31508000030C50D00080000000039390008193B000802
S315080000401F0100081F0100081F0100081F01000802
S315080000501F0100081F0100081F0100081F010008F2
S315080000601F0100081F0100081F0100081F010008E2
S315080000701F0100081F0100081F0100081F010008D2
S315080000801F0100081F010008990900081F01000840
S315080000901F0100081F0100081F0100081F010008B2
S315080000A01F010008CD3B00081F0100081F010008BA
S315080000B01F0100081F0100081F0100081F01000892
S315080000C01F0100081F0100081F0100081F01000882
S315080000D01F0100089D4000081F010008A9400008EC
S315080000E01F0100081F0100081F010008DFF810D0D3
S315080000F000F014FC00480047ED4C0008AFF3008000
S31508000100880D00200648804706480047FEE7FEE7B8
S31508000110FEE7FEE7FEE7FEE7FEE7FEE7FEE7FEE7A9
S31508000120C93B0008ED000008202A04DB203A21FA22
S3150800013002F00021704721FA02F3D040C2F12002F2
S315080001409140084319467047D2B201E000F8012BE6
S31508000150491EFBD270470022F6E710B513460A4639
S3150800016004461946FFF7F0FF204610BDF0B480EAB2
S315080001700102D40F4200B2EB410F02D202460846F2
S3150800018011464A0042D0C30DDDB2C1F3C752AD1ABB
S31508000190202D35DAC1F3160141F4000204B15242AA
S315080001A0C5F1200602FA06F12A411044B3EBD05FE6
S315080001B023D0C4B1012DA0EBC35009DCF0BC4FF02D
S315080001C0004202EAC352DBB200F5000000F003BBAE
S315080001D0400000F1807000EBC350A0F1807040EA47
S315080001E0D170490009E0490841EAC071A0EBC35043
S315080001F000F50000400800EBC350F0BC00F0E2BA7E
S315080002006142012202EB4101001BF6E7F0BC704790
S3150800021081F00041AAE780F00040A7E780EA0102E2
S3150800022010B502F00043400022D04A001FD0010E4C
S3150800023001EB1261C0F35600C2F3560240F4000007
S3150800024042F40002A0FB022000047F39140400D007
S31508000250401C50EA124001D44000491EC2B20C06A6
S3150800026004EBD010401C4008802A02D003E000208E
S3150800027010BD20F00100002900DA0020184310BD47
S3150800028030B480EA010202F0004530F0004221F065
S31508000290004013D090B1C30DD40DC2F31601C0F3BC
S315080002A01600E41A41F4000140F400027D3491423C
S315080002B001D3641C00E04900002C02DA30BC00209F
S315080002C070474FF400000023914201D3891A034373
S315080002D040084FEA4101F7D151B1914202D14FF09E
S315080002E0004105E002D24FF0010101E06FF0010183
S315080002F003EBC450284430BC00F064BA2DE9FE4F25
S31508000300804681EA0300C00F0C46009021F00041A8
S3150800031023F00045B8EB0200A94105D24046214624
S3150800032090461C460B46024623F00040104347D031
S31508000330270DC7F30A00C3F30A510290401A019029
S3150800034040286BDAC3F3130040F4801B00989246EA
S3150800035020B10023D2EB030A63EB0B0B0198594635
S31508000360C0F14002504600F00CFA06460D465046CB
S315080003705946019A00F014FA10EB0800614100246E
S3150800038087EA115284EAE7731A4340D0009A62B3A7
S31508000390019A012A4FEA075215DC001B61EB02019C
S315080003A04FF0004202EA0752CDE90042001C41F52F
S315080003B0801132462B4600F04BFA03B0BDE8F08FA9
S315080003C040462146F9E7001B61EB0201001C41F596
S315080003D0801300185B412018A2F5001747EB0301AC
S315080003E040EAD570B6196D4111E06D084FEA360638
S315080003F045EAC0754FEA0752001B61EB0201001C73
S3150800040041F5801149084FEA30000019514132463A
S315080004102B4603B0BDE8F04F00F00BBA0098012256
S3150800042040000023D0EB020263EBE07300982146FC
S315080004304FEAE074B8EB000061EB0401E9E783F0EA
S3150800044000435BE781F0004158E72DE9FE4F81EA5A
S31508000450030404F0004421F0004100944FF0000B1F
S3150800046023F0004350EA01045ED052EA03045BD04D
S31508000470C3F30A54C1F30A552C44A4F2F334019485
S31508000480A0FB0254C1F3130141F48011C3F3130313
S3150800049043F4801301FB024400FB034E840A970AC7
S315080004A044EA815447EA8357A4FB076802958D0AF4
S315080004B005FB07854FEA932C04FB0C542705029D80
S315080004C04FEA065847EA1637B5EB08056EEB070CF0
S315080004D0870E920E47EA811742EA8312A7FB0201AA
S315080004E0B6EB0B0164EB00042B0D43EA0C335E18E4
S315080004F044EB1C50DA465146E7FB0201C5F31304E8
S315080005004FEA0B3343EA14534FEA0432019C43EA99
S315080005100603A4F10C040294009CCDE900B400F093
S3150800052097F903B0BDE8F08F00200146F9E72DE9F9
S31508000530F04D81EA030404F0004B21F0004514460F
S315080005404FF0000A23F0004150EA050220D054EA91
S3150800055001021DD0C5F30A570246C5F31303C1F3BA
S315080005601300C1F30A5640F4801543F48013A7EB31
S315080005700608101BD64608F2FD3873EB050002D3B1
S3150800058008F1010801E092185B41B8F1000F03DA9F
S3150800059000200146BDE8F08D00204FF48011064684
S315080005A084460EE0171B73EB050705D3121B63EB96
S315080005B0050306434CEA010C49084FEA3000921835
S315080005C05B4150EA0107EDD152EA030012D082EAF4
S315080005D0040083EA0501084305D0101BAB4106D287
S315080005E00122002306E000224FF0004302E06FF0EC
S315080005F0010253101AEB06004CEB085110EB0A00E7
S3150800060041EB0B01BDE8F04D00F013B9C10F80EACC
S31508000610E0700844CA079623002100F0DCB80EB53E
S3150800062040F2334102910021CDE900110A460B46FA
S3150800063000F00EF903B000BD00F0004220F00040C3
S31508000640C10DC0F3160040F400007F2901DA00202E
S315080006507047962903DCC1F19601C84001E0963936
S315080006608840002AF4D040427047C1F30A5210B5B8
S31508000670C1F3130140F2FF3341F480119A4201DAC3
S31508000680002010BD40F233439A42A2F2334203DC03
S315080006905242FFF749FD10BD904010BD30B5041E0B
S315080006A071F1000404DB4FF00044404264EB0101A1
S315080006B0141E73F1000405DB1C464FF0004352423A
S315080006C063EB0403994208BF904230BD002801DB62
S315080006D0C0F10040002901DBC1F1004181427047A9
S315080006E0002801DBC0F10040002901DBC1F100410F
S315080006F08842704730B50B46014600202022012467
S3150800070009E021FA02F59D4205D303FA02F5491BD1
S3150800071004FA02F52844151EA2F10102F1DC30BDE7
S315080007202DE9F05F0546002092469B468846064618
S31508000730814640241BE02846414647462246FFF7A5
S31508000740F3FC53465A46C01A914110D3114618462F
S31508000750224600F016F82D1A67EB01084F46224686
S315080007600120002100F00DF817EB00094E41201E6C
S31508000770A4F10104DFDC484631462A464346BDE873
S31508000780F09F202A04DB203A00FA02F10020704785
S315080007909140C2F1200320FA03F3194390407047B1
S315080007A0202A06DBCB17203A41FA02F043EAE07327
S315080007B006E041FA02F3D040C2F120029140084314
S315080007C0194670470029A8BF7047401C490008BF52
S315080007D020F00100704710B4B0FA80FC00FA0CF063
S315080007E050EA010404BF10BC704749B1CCF120049B
S315080007F021FA04F411FA0CF118BF01212143084328
S31508000800A3EB0C01CB1D4FEA00614FEA102042BF53
S31508000810002010BC704700EBC35010440029A4BF49
S3150800082010BC7047401C490008BF20F0010010BCEE
S31508000830704710B5141E73F1000408DA401C41F124
S31508000840000192185B411A4301D120F0010010BD46
S315080008502DE9F04D92469B4611B1B1FA81F202E0BC
S31508000860B0FA80F220329046FFF78BFF04460F4617
S3150800087040EA0A0041EA0B0153465A46084313D098
S31508000880114653EA010019D0C8F140025046FFF755
S315080008904BFC05460E46504659464246FFF771FF41
S315080008A0084305D0012004E020463946BDE8F08D0E
S315080008B00020054346EAE0762C4337430A98630549
S315080008C0E40AA0EB08000022FD0A44EA47540A306D
S315080008D002D500200146E9E7010510196941DDE95D
S315080008E0084500196941BDE8F04DA2E7C1F30A526F
S315080008F0C1F3130140F2FF3341F480119A4202DA40
S3150800090000200146704740F233439A42A2F233422E
S3150800091002DC5242FFF708BCFFF733BF064C074D0F
S3150800092006E0E06840F0010394E8070098471034B1
S31508000930AC42F6D3FFF7DEFBE45B0008045C000874
S3150800094070B58C1810F8015B15F0070301D110F883
S31508000950013B2A1106D110F8012B03E010F8016BB0
S3150800096001F8016B5B1EF9D12B0705D40023521E33
S315080009700DD401F8013BFAE710F8013BCB1A921C9B
S3150800098003E013F8015B01F8015B521EF9D5A14299
S31508000990D8D3002070BD0000014800F0A6BA0000B8
S315080009A0F007002070B5044600688168C943C90786
S315080009B017D1816821F00101816000F0B3FD054679
S315080009C00AE000BF00F0AEFD401B022804D92068EB
S315080009D08068C043C00706D020688068C043C00747
S315080009E0F0D0002070BDA06A40F01000A062E06A56
S315080009F040F00100E062012070BD0000F8B5002655
S31508000A000446009600688168C943C9072DD08168E5
S31508000A1041F001018160164816490068B0FBF1F003
S31508000A2000E0401E00900028FBD100F07BFD054643
S31508000A3016E000BF00F076FD401B022810D920689A
S31508000A408068C043C0070BD0A06A40F01000A062BF
S31508000A50E06A40F00100E06284F824600120F8BDF5
S31508000A6020688068C043C007E4D10020F8BD0000B4
S31508000A708403002040420F0038B50F4C2078A0B1FF
S31508000A806068FFF7CCFD00220C4BFFF7DEFCFFF792
S31508000A90ECFD82B20A486280007830B908200090DE
S31508000AA004232021282002F0E1FC064800F050FB30
S31508000AB00020207038BD0000FC00002040EA1440E9
S31508000AC01D000020F00700200148408870470000FC
S31508000AD0FC00002010B51A4C01220821204600F01F
S31508000AE01CFD642000F00AFC00220821204600F0C4
S31508000AF014FD01F0D7FF01F0EDFF02F021F802F036
S31508000B00C4FB002108230FA2084602F001FD0823B2
S31508000B1010A21021002002F0FBFC08230FA22021BE
S31508000B20002002F0F5FC08230EA22021482002F03E
S31508000B30EFFC01F095FFBDE8104002F0FFBC000095
S31508000B40000C0140646973743A202D2D2D2D206DFB
S31508000B506D00000053454E3A000000004241543AE9
S31508000B60000000006D560000FEE7000010B50B4CB3
S31508000B70A1780B4851B1A178C9070DD000220821E8
S31508000B8000F0CBFCA078401EA07010BD0022BDE886
S31508000B901040082100F0C1BC0122F0E71C0000202B
S31508000BA0000C014001494000887070471C00002075
S31508000BB010B54FF48041134800F0A2FC124C0028EF
S31508000BC0E07812D004281AD9207880F00100207025
S31508000BD000F0A8FC0146207802F088FF21780BA0D7
S31508000BE003F07CFA207810B109E0401C08E00021E7
S31508000BF00A4802F051FA0021094802F04DFA00208D
S31508000C00E07010BD001001401C00002052756E46B1
S31508000C106C6167203D2025640D0A0000DC00002079
S31508000C20EC00002038B54FF400411D4800F068FC80
S31508000C301C4C08B1002030E02079052801D2401C60
S31508000C402071C0B2052829D1607880F00100607053
S31508000C5002F07AFA6078B8B10021082312A2084691
S31508000C6002F056FC082313A21021002002F050FCC3
S31508000C7000F058FC02F02CFF009011A30822202156
S31508000C80002002F057FB01E002F0FEFD02F056FCE0
S31508000C900220FFF787FF2079401C207138BD00002D
S31508000CA0001001401C00002050726F6475637420A8
S31508000CB06F6600005465616D20536576656E0000A9
S31508000CC054696D653A25356C752073001FB52C4837
S31508000CD04078002852D101A802F0A6FE0021102370
S31508000CE08022084602F048FA01F01CFF48B101F0DC
S31508000CF00DFF0021009023A30822084602F01AFBE4
S31508000D0005E00021082322A2084602F001FC082378
S31508000D1023A21021002002F0FBFB082322A2202197
S31508000D20002002F0F5FB082321A22021482002F02A
S31508000D30EFFB082301AA1021282002F0E9FB08236B
S31508000D401CA23021002002F0E3FB1B480824009473
S31508000D50B0F9002003233021102002F0AAFB30212D
S31508000D60082316A2084602F0D3FB1548009404236C
S31508000D70B0F900203021402002F09BFB1FBD000087
S31508000D801C000020646973743A253475206D6D0063
S31508000D90646973743A202D2D2D2D206D6D00000089
S31508000DA053454E3A000000004241543A0000000004
S31508000DB06D560000653D0000AE000020633D000052
S31508000DC0B000002070477047F8B50024009490F8EA
S31508000DD024202546012A12D0012280F824204A68B8
S31508000DE01F23072A0DD20668776B521E02EB820272
S31508000DF093409F430B6893401F43776319E0022093
S31508000E00F8BD06680D2A0AD2376BD21F02EB82029A
S31508000E1093409F430B6893401F43376309E0F76A83
S31508000E200D3A02EB820293409F430B6893401F439F
S31508000E30F7620A68072306680A2A0AD3F7680A3A8D
S31508000E4002EB420293409F438B6893401F43F7602F
S31508000E5008E0376902EB420293409F438B68934050
S31508000E601F4337610A68102A01D0112A20D1124B74
S31508000E7002689A4217D193681B0219D4936843F4FF
S31508000E80000393600968102912D10C490C4A0968B5
S31508000E90B1FBF2F101EB8101490000E0491E009126
S31508000EA00029FBD104E0816A41F020018162012416
S31508000EB080F824502046F8BD002401408403002011
S31508000EC040420F0010B5054A0168914205D100F06D
S31508000ED009F8034948600120087010BD0024014044
S31508000EE0FC0000200068C06C704770B504460068B6
S31508000EF006684568A90625D5B10723D5A16AC90696
S31508000F0003D4A16A41F40071A1628168C1F3424128
S31508000F10072910D1217B71B9416821F02001416070
S31508000F20A06A20F48070A062A06AC00403D4A06AF4
S31508000F3040F00100A0622046FFF7C4FF21686FF069
S31508000F401200086028062ED570072CD5A06AC006A0
S31508000F5003D4A06A40F40050A06220688168C1F3F7
S31508000F600231072909D04168490515D48168C1F3BA
S31508000F704241072910D1217B71B9416821F08001CE
S31508000F804160A06A20F48050A062A06AC00503D41C
S31508000F90A06A40F00100A0622046FFF714FF21680E
S31508000FA06FF00C00086068060CD5F0070AD0A06A36
S31508000FB040F48030A062204600F094F821686FF073
S31508000FC00100086070BD00002DE9F0414FF00007F0
S31508000FD004003D467ED0A06A002628B9E66284F859
S31508000FE02460204600F080F82046FFF7DBFCA16A63
S31508000FF0C90600D420B1A06A40F01000A06269E0DA
S31508001000A16A21F4885141F00201A1626268E1698E
S31508001010237B0A4347EA43010A43A1684FF48077D2
S31508001020B94209D0012907D05FF0000194F814C02D
S31508001030BCF1010F02D00AE03946F7E7F3B1A36A1B
S3150800104043F02003A362E36A43F00103E3622368E3
S31508001050D3F804C02CF4694C4CEA010CC3F804C05C
S3150800106021688B68DFF870C003EA0C0313438B60B2
S31508001070A168B9420BD0012909D00CE0DFF85CC0A1
S31508001080A3690CEB43330B4343F40061DFE7218A82
S315080010900D05A5F580152168CB6A23F470032B434B
S315080010A0CB62216889680E4B1940914208D1E662E5
S315080010B0A16A21F0020141F00101A162BDE8F081B7
S315080010C0A06A20F0020040F01000A062E06A40F03A
S315080010D00100E0620120F1E7FDF7E1FF00E0FFFF14
S315080010E0FE0E1FFF7047000000B585B00021009175
S315080010F001910291039100681249884220D1124851
S31508001100816941F400718161816901F4007104917A
S31508001110816941F0080181618069694600F008002B
S3150800112004900120009003200190084800F0F8F888
S3150800113000221146122000F061FA122000F050FA3F
S3150800114005B000BD0024014000100240000C01401B
S3150800115070B5044690F8240001280DD0012084F8C3
S3150800116024002046FFF74AFC02004FF0000005D095
S3150800117084F82400104670BD022070BDA16A40F6AE
S315080011800163994341F48071A162224D2368224983
S31508001190AB4218D10E6816F4702F14D0A66A46F41E
S315080011A08016A6620E68760505D5A66A26F4005648
S315080011B046F48056A662A66AF6040AD5E66A26F0BA
S315080011C00606E66206E0A66A26F48016A6625E6849
S315080011D0E9E7E06284F824006FF0020018602068EE
S315080011E0436843F02003436020688368C3F342439F
S315080011F0072B05D1A84208D1096811F4702F04D02D
S31508001200816841F480118160B4E7816841F4A001E6
S31508001210F9E70000002801400424014010B590F8C1
S3150800122021100022022905D00421816380F820209C
S31508001230012010BD01680B6823F00E030B600168DE
S315080012400B6823F001030B6090F84030C46B012152
S3150800125001FA03F3636080F8211080F82020104615
S3150800126010BD000010B590F821100024022903D003
S315080012700421816301243DE001680A6822F00E0218
S315080012800A6001680A6822F001020A601A4A0168BF
S31508001290914201D1012121E0174A1432914201D12C
S315080012A010211BE0144A2832914201D1891515E014
S315080012B0114A3C32914201D189140FE00E4A50324C
S315080012C0914202D14FF4803108E00B4A64329142D0
S315080012D002D14FF4801101E04FF08071064A083AB6
S315080012E05160012180F82110002180F82010416BFF
S315080012F001B18847204610BD0800024070B5044673
S3150800130000F010F90546601C02D004480078044431
S3150800131000F008F9401BA042FAD370BD88030020EC
S315080013202DE9F84FDFF8B8910024A9F1040B2346FC
S315080013300F2709F1040AABF1040EC9E00125A540FF
S315080013402A40AA427DD1674ED1F804C0ACEB060804
S31508001350B44532D014DCBCF1030F3AD009DCBCF139
S31508001360000F2AD0BCF1010F1CD0BCF1020F31D1FD
S315080013701DE0BCF1110F17D0BCF1120F2AD119E0EC
S31508001380B8F5881F19D006DCB8F5803F15D0B8F532
S31508001390801F1FD111E0B8F5001F0ED0B8F5041F45
S315080013A018D10AE0CB6815E0CB681B1D12E0CB68A4
S315080013B008330FE0CB680C330CE08B682BB1012B9C
S315080013C04FF0080303D0456104E0042302E00561F9
S315080013D000E00023FF2A01D8064601E000F10406D2
S315080013E04FEA840501D9A5F12005D6F8008007FA49
S315080013F005FC28EA0C0803FA05F548EA0508C6F8C4
S3150800140000804D68ED0062D5374DAE6946F001069D
S31508001410AE61AD6924F0030605F001050095334D6C
S3150800142006EB050CDCF80850A607360F07FA06F88F
S3150800143025EA0805DFF8B880404503D14FF00008D3
S3150800144017E044E0DFF8AC80404502D14FF00108D0
S315080014500FE0DFF8A480404502D14FF0020808E00B
S31508001460DFF89880404502D14FF0030801E04FF0BD
S31508001470040808FA06F848EA0508CCF808804D6812
S31508001480D9F80060ED024D4601D5164300E09643B3
S315080014902E604D68DAF80060AD02554601D5164350
S315080014A000E096432E604D68DBF80060AD035D46AC
S315080014B001D5164300E096432E604D68DEF80060BD
S315080014C0ED03754601D5164300E096432E60641C6D
S315080014D00D682A46E5407FF431AFBDE8F88F000075
S315080014E008040140000011100010024000000140ED
S315080014F000080140000C01400010014000140140A2
S315080015008068084000D001207047C26821EA0203BB
S315080015100A4043EA0241016170470AB10161704716
S315080015200904FBE70148806870470000880300202B
S315080015300248816802781144816070478803002058
S31508001540074810B5016841F010010160032000F05A
S3150800155075F80F2000F006F800F024F8002010BDFA
S315080015600020024070B50D4D04464FF47A71287874
S31508001570B1FBF0F00A490968B1FBF0F000F052FB44
S3150800158048B9102C07D200222146501E00F036F822
S3150800159000206C6070BD012070BD0000880300202B
S315080015A0840300200C4808B5816941F00101816176
S315080015B0816901F001010091C16941F08051C16161
S315080015C0C06900F0805000900448416821F0E0614D
S315080015D041F00071416008BD001002400000014062
S315080015E0002809DB00F01F02012191404009800014
S315080015F000F1E020C0F8001170470000F0B40E4B6F
S315080016001B680C46C3F30223C3F10705042D00D952
S315080016100425191D072901D2002300E0DB1E012637
S3150800162006FA05F1491E214099409E40761E16404D
S315080016303143F0BC02F074BD0CED00E0064900F041
S31508001640070208684FF6FF03184040EA0220034ADB
S3150800165010430860704700000CED00E00000FA0532
S315080016602DE9F84305460078354CC00754D0E069A3
S315080016700026C00008D4E06940F08050E061E069C7
S31508001680012600F0805000902E480168C90512D442
S315080016900168804641F480710160FFF743FF074601
S315080016A005E000BFFFF73EFFC01B642823D8D8F823
S315080016B00000C005F6D5206A10F4407021D0A9882C
S315080016C001F4407181421CD0206A1F49012220F48E
S315080016D040700A6000220A602062C00711D0FFF736
S315080016E021FF074641F2883808E000BFFFF71AFFD6
S315080016F0C11B414502D90320BDE8F883206A80074B
S31508001700F4D5206A696820F44070084320621EB147
S31508001710E06920F08050E0612878800705D5606888
S31508001720A96820F44040084360602878C00605D5BB
S315080017306068E96820F48000084360600020DBE701
S315080017400010024000700040400442422DE9F04774
S315080017500F46050061D0434E306800F00700B842D6
S3150800176009D2306820F0070038433060306800F04E
S315080017700700B84251D128683B4C810712D540076B
S3150800178003D5606840F4E06060602878000703D5F8
S31508001790606840F4605060606068A96820F0F000F6
S315080017A0084360602878C00728D06868012810D0E8
S315080017B02168022810D0890700292EDA616821F0ED
S315080017C0030101436160FFF7ADFE804641F28839A7
S315080017D00DE021688903EFE78901EDE7FFF7A2FE2F
S315080017E0A0EB0801494502D90320BDE8F0876068E7
S315080017F0696800F00C00B0EB810FEFD1306800F09B
S315080018000700B8420BD9306820F00700384330602B
S31508001810306800F00700B84201D00120E5E72878D3
S31508001820400705D56068E96820F4E0600843606011
S315080018302878000706D56068296920F4605040EAD0
S31508001840C100606000F038F86168084AC1F3031106
S31508001850515CC8400649086006480068FFF782FEE2
S315080018600020C2E70020024000100240B95B0008D1
S31508001870840300208C030020044805490068496851
S31508001880044AC1F30221515CC84070478403002012
S3150800189000100240C95B0008044805490068496809
S315080018A0044AC1F3C221515CC84070478403002032
S315080018B000100240C95B00080E4A51680E4801F044
S315080018C00C03042B11D0082B0FD10C48C1F383430A
S315080018D0C903C05C0AD55168084AC1F34041921E43
S315080018E0515C054A5043B0FBF1F070470449484340
S315080018F0704700000010024000127A00D35B00080F
S3150800190000093D002DE9F84F040070D02078C04D3D
S31508001910C00749D06868C0F38100012807D0686805
S31508001920C0F38100022809D16868C00306D5286873
S31508001930800339D560680028E7D035E06068B0F5DF
S31508001940803F0BD010B1B0F5A02F11D0286820F435
S3150800195080302860286820F4802002E0286840F457
S3150800196080302860606890B1FFF7DCFD06460AE023
S31508001970286840F480202860F0E700BFFFF7D2FD12
S31508001980801B642873D828688003F7D50CE0FFF716
S31508001990C9FD064605E000BFFFF7C4FD801B6428A5
S315080019A0F0D828688003F7D420789A4E80074FF03D
S315080019B001094FF0000839D5686810F00C0F07D0F8
S315080019C06868C0F38100022809D16868C00306D494
S315080019D02868800714D52069012808D110E02069F5
S315080019E0B0B1C6F80090FFF79DFD074605E00AE18D
S315080019F0FFF798FDC01B0228C4D828688007F7D5CA
S31508001A002868616920F0F80040EAC10028600DE006
S31508001A10C6F80080FFF786FD074604E0FFF782FD5B
S31508001A20C01B022823D828688007F7D42078000727
S31508001A302CD57948A169D9B1C0F80090FFF772FD95
S31508001A40074604E0FFF76EFDC01B02280FD8686A38
S31508001A508007F7D571484FF4FA510068B0FBF1F0EA
S31508001A60009000BF0098411E0091FAD20EE080E077
S31508001A70C0F80080FFF756FD074604E0FFF752FD61
S31508001A80C01B022875D8686A8007F7D420784007F3
S31508001A9060D5E8690027C00008D4E86940F080509E
S31508001AA0E861E869012700F0805000905C48016809
S31508001AB0C90513D40168834641F480710160FFF7B4
S31508001AC031FD824606E000BFFFF72CFDA0EB0A00B9
S31508001AD064284ED8DBF80000C005F5D5E068012873
S31508001AE00AD008B1052813D0286A20F00100286218
S31508001AF0286A20F0040002E0286A40F00100286203
S31508001B00E06841F2883B98B1FFF70CFD82460BE08E
S31508001B10286A40F004002862EEE700BFFFF702FDDE
S31508001B20A0EB0A0159455AD8286A8007F6D50CE071
S31508001B30FFF7F8FC824605E0FFF7F4FCA0EB0A0184
S31508001B4059454CD8286A8007F6D41FB1E86920F0B1
S31508001B508050E861E06988B36968C1F381010229A8
S31508001B6044D00228C6F8608004D0FFF7DBFC0446A0
S31508001B7038E034E0FFF7D6FC074604E0FFF7D2FC6E
S31508001B80C01B02282BD828688001F7D4206AB0F534
S31508001B90803F05D16868A16820F400300843686072
S31508001BA0D4E908010843696821F474110843686098
S31508001BB0C6F86090FFF7B6FC044606E025E000BFCD
S31508001BC0FFF7B0FC001B022809D828688001F7D562
S31508001BD01BE000BFFFF7A6FC001B022802D9032062
S31508001BE0BDE8F88F28688001F4D40EE00128F7D004
S31508001BF06868226A00F48031914204D1616A00F46F
S31508001C007010884201D00120EAE70020E8E70000CA
S31508001C100010024000004242800442428403002031
S31508001C200070004010B5401EB0F1807F01D301203E
S31508001C3010BD4FF0E02460610F21601702F070FAC2
S31508001C400020A06107202061002010BD7047704762
S31508001C5070B590F83C20012A26D0012480F83C4033
S31508001C60022280F83D2003685A689D6822F07006B3
S31508001C700A6832435A600D4B02689A4208D0B2F19C
S31508001C80804F05D00A4B9A4202D00A4B9A4204D199
S31508001C90496825F080031943916080F83D4000218A
S31508001CA080F83C10084670BD022070BD002C01402B
S31508001CB0000400400008004010B5040003D094F862
S31508001CC03D0010B107E0012010BD002084F83C005B
S31508001CD0204600F01FF8022084F83D00211D2068E8
S31508001CE001F07AFF012084F8460084F83E0084F863
S31508001CF03F0084F8400084F8410084F8420084F8E4
S31508001D00430084F8440084F8450084F83D00002028
S31508001D1010BD000008B500680B49884212D10B486F
S31508001D20816941F4006181618069002200F40060E4
S31508001D30009011461920FFF761FCBDE808401920FC
S31508001D40FFF74EBC08BD0000002C01400010024001
S31508001D5090F83D10012901D001207047022180F832
S31508001D603D100168CA6842F00102CA6000680B4962
S31508001D70884208D0B0F1804F05D00949884202D080
S31508001D800849884204D1816801F00701062903D071
S31508001D90016841F00101016000207047002C0140F4
S31508001DA0000400400008004070B5044690F83C0066
S31508001DB00025012817D0012684F83C60022084F803
S31508001DC03D002068826822F0770222F47F42826012
S31508001DD00868502838D00DDC20284FD005DC90B391
S31508001DE0102811D14AE0022070BD302846D040287C
S31508001DF00AD13BE060282FD070280DD0B0F5805F5F
S31508001E0003D0B0F5005F12D0012584F83D600020AC
S31508001E1084F83C00284670BDCB68D1E901212068CA
S31508001E2001F023FF2068816841F0770109E0CB685B
S31508001E30D1E90121206801F018FF2068816841F482
S31508001E4080418160E1E719E0CA684968206801F0C5
S31508001E50C1FF5021206806E0CA684968206801F079
S31508001E60CAFF6021206801F00AFFCEE7CA68496800
S31508001E70206801F0AFFF40212068F4E72268014698
S31508001E801046F0E770472DE9F04104460068C66839
S31508001E9005694FF00007A90713D5B10711D5F91E33
S31508001EA0016101202077206880698007204602D0DA
S31508001EB0FFF7E8FF04E000F0C5F8204600F076F9E1
S31508001EC02777680716D5700714D521686FF00400C0
S31508001ED00861022020772068806910F4407F204638
S31508001EE002D0FFF7CFFF04E000F0ACF8204600F080
S31508001EF05DF92777280715D5300713D521686FF0C0
S31508001F0008000861042020772068C06980072046F9
S31508001F1002D0FFF7B7FF04E000F094F8204600F07F
S31508001F2045F92777E80616D5F00614D521686FF027
S31508001F3010000861082020772068C06910F4407FE7
S31508001F40204602D0FFF79EFF04E000F07BF820460B
S31508001F5000F02CF92777E80708D0F00706D02168A3
S31508001F606FF001000861204600F070F9280608D5D0
S31508001F70300606D521686FF0800008612046FFF715
S31508001F8065FE680608D5700606D521686FF040001C
S31508001F900861204600F0B6FAA8060AD5B00608D5A4
S31508001FA021686FF0200008612046BDE8F041FFF780
S31508001FB04EBEBDE8F081000010B586B00021009144
S31508001FC00191029103911A4C03681A4902221A4890
S31508001FD0A34219D18B6943F008038B61896903927F
S31508001FE001F0080104912021CDE900126946FFF7A6
S31508001FF097F91248416821F4406141F0E06141F4E3
S315080020000061416006B010BD0D4CA342FAD18B6940
S3150800201043F008038B618969039201F00801049172
S315080020204021CDE900126946FFF77AF9EAE7000090
S315080020300004004000100240000C0140000001406E
S3150800204000080040704770B5044690F83C0000262A
S315080020500D4601280FD0012084F83C006AB1042AF5
S315080020601DD0082A2FD00C2A3FD00126002084F83C
S315080020703C00304670BD022070BD206801F008FEA5
S315080020802068816941F0080181612068816921F031
S3150800209004018161206881692A69114311E0206879
S315080020A001F01EFE2068816941F4006181612068A3
S315080020B0816921F480618161206881692A6941EA20
S315080020C002218161D2E7206801F036FE2068C169E5
S315080020D041F00801C1612068C16921F00401C161AC
S315080020E02068C1692A69114311E0206801F050FE91
S315080020F02068C16941F40061C1612068C16921F4A1
S315080021008061C1612068C1692A6941EA0221C16109
S31508002110ACE710B5040003D094F83D0010B107E011
S31508002120012010BD002084F83C00204600F01EF86F
S31508002130022084F83D00211D206801F04DFD012094
S3150800214084F8460084F83E0084F83F0084F840008E
S3150800215084F8410084F8420084F8430084F8440077
S3150800216084F8450084F83D00002010BD08B50C4AE7
S3150800217001680C48914207D1C16941F00201C16169
S31508002180C06900F0020009E0074A914207D1C16917
S3150800219041F00401C161C06900F00400009008BD67
S315080021A0000400400010024000080040704700008C
S315080021B010B50446022249B104290ED0082913D0C5
S315080021C094F84100012816D0012010BD94F83E006D
S315080021D00128F9D184F83E200FE094F83F00012841
S315080021E0F2D184F83F2008E094F840000128EBD1AA
S315080021F084F8402001E084F841200122206801F09B
S3150800220027FD0F492068884203D1426C42F40042F8
S3150800221042642068884208D0B0F1804F05D0094949
S31508002220884202D00849884204D1816801F0070132
S31508002230062903D0016841F001010160002010BDA4
S31508002240002C014000040040000800402DE9FC5F16
S315080022500068994988427DD198480078002879D144
S3150800226097480078002718B101F0F8F958BB0FE035
S315080022700021944800F010FF0021934800F00CFF5D
S3150800228001F0F4F902F0F0FD00231A4600974BE03E
S31508002290684602F097FD684602F078FC9DF8031040
S315080022A011B99DF8041009B1012200E000229DF839
S315080022B0021011B99DF8051001B1012138B10A4380
S315080022C001D1012803DD01F0F3F9002842D17F4C42
S315080022D0207830B127616761E761BDE8FC5F02F0ED
S315080022E0D3BDE0784FF416784FF4AF79F8B1444689
S315080022F042464E4649464FF4CA7002F02DFC054642
S31508002300224631464FF4C67002F026FC044629B22E
S315080023106C4800F0C1FE21B26B4800F0BDFE02F029
S31508002320A3FD2346009745E000210846BFE068461E
S3150800233002F048FD0025684602F028FC0646644976
S3150800234000206A46135C0BB10B561D44401C082836
S31508002350F8DB00E0ADE0002E0BDD3046FEF756F95F
S3150800236082462846FEF752F95146FDF789FF05468B
S3150800237022E04FF000051FD1206A6FF0F90600F140
S31508002380010020621E2801DC354607E0E06910F1ED
S31508002390FF4F02D33546FA2600E0FA252946494872
S315080023A000F07AFE3146484800F076FE6762A7627A
S315080023B0334600972A46B7E746482762082E0AD0CA
S315080023C0E56115F17F5F08D2854206DA294620695C
S315080023D0FDF7CCFE05E00025F8E73F492069FDF743
S315080023E01DFF3E4A3E49206102F0BEFB2061284699
S315080023F06169FDF70DFF3B496561FDF70FFF07466C
S315080024003949A069FDF70AFF3946FDF7AFFE374996
S31508002410A061FDF703FF074635492846FDF7FEFE8E
S315080024203946FDF7A3FE334A334902F09DFBDFF830
S31508002430CCB001905946FDF799FE3149FDF796FE55
S31508002440FEF7FAF8C24642464F46494602F084FB72
S31508002450804658460199FDF7DBFEFEF7EDF8524631
S31508002460394602F079FB0746D4E9091008430ED02D
S3150800247001F132024046323902F06EFBA26A80460A
S31508002480A2F132013846323202F066FB0746C4E949
S3150800249009870FFA88F10B4800F0FEFD39B20A48A1
S315080024A000F0FAFD3B46424600962846019902F09E
S315080024B06FFCBDE8FC9F0000002C01401D000020B9
S315080024C01C000020DC000020EC000020A8000020F2
S315080024D0D64F0008000040403333733F00002042C7
S315080024E0000020C23333333F9A99993E9A99993F0F
S315080024F00000704100009643000096C30000C843E0
S315080025000000C0407047704770470000F8B5016882
S3150800251004460868CA684B6910F00F0F4FF00005AB
S3150800252059D003F0010602F49077374365D0C10706
S3150800253005D0D10503D5616C41F0010161644107FD
S3150800254005D5D90703D0616C41F0020161648107A2
S3150800255005D5D90703D0616C41F004016164010710
S3150800256007D502F02001314303D0616C41F0080120
S315080025706164616C00293AD0800604D5900602D5BC
S31508002580204601F079FC20684069616CC0F3801030
S31508002590090700D460B3204601F047FC206840696B
S315080025A0400621D52068143050E8001F21F040016C
S315080025B040E80012002AF5D1E06BA8B16D494163E5
S315080025C0E06BFEF74FFE002811D0E06B416B01B0BF
S315080025D0BDE8F040084783060FD593060DD520467B
S315080025E0BDE8F84001F048BC2046FFF78DFFF8BD6E
S315080025F02046FFF789FF6564F8BD266B2023012E68
S315080026007CD1C6067AD5D60678D50868486800907B
S3150800261048694FF00206400640D5E16B08684068F5
S315080026200004000CE8D0A28D8242E5D9E0858869CD
S3150800263020282DD020680C3050E8001F21F4807126
S3150800264040E80012002AF5D12068143050E8001F2F
S3150800265021F0010140E80012002AF5D12068143063
S3150800266050E8001F21F0400140E80012002AF5D189
S3150800267084F84230256320680C3050E8001F21F0AA
S31508002680100140E80012002AF5D1E06BFEF7C6FDFE
S315080026906663A08DE18D401A81B22AE0A08DE18D96
S315080026A0401A81B2E08D0028A6D00029A4D022685D
S315080026B00C3252E8000F20F4907042E80007002F11
S315080026C0F5D12068143050E8002F22F0010240E8C6
S315080026D00027002FF5D184F84230256320680C3096
S315080026E050E8002F22F0100240E80023002BF5D115
S315080026F066632046FFF707FFF8BDFFE705062BD5FB
S31508002700150629D594F841002128F5D1A068B0F519
S31508002710805F01D12069B0B1206A411C216221681D
S3150800272000784860E08C401E0004000CE084E3D189
S315080027302068C16821F08001C1602068C16841F045
S315080027404001C160D8E7206A0088C0F308004860E5
S31508002750206A801C2062E5E74006CDD55006CBD519
S31508002760CA68204622F04002CA6084F8413000F068
S3150800277043F9C1E71B3E000870B5040004D094F87D
S315080027804100002510B106E0012070BD84F84050D4
S31508002790204600F023F8242084F841002068C16808
S315080027A021F40051C160204601F0C8FB2068016988
S315080027B021F4904101612068416921F02A014161B3
S315080027C02068C16841F40051C1606564202084F81E
S315080027D0410084F842006563002070BD70B586B07C
S315080027E00024009401940294039403682E482D4E05
S315080027F0022103220515B34226D1836943F4804397
S315080028008361836903F480430493836943F0040373
S3150800281083618069254E00F0040004900802CDE922
S315080028200001039269463046FEF77AFDCDE9005469
S31508002830694630460294FEF773FD002211462520AC
S31508002840FEF7DCFE252028E0194EB34227D1C369DE
S3150800285043F48023C361C36903F480230493836923
S3150800286043F0080383618069CDE9005100F0080050
S31508002870CDE903200F4D69462846FEF751FDE814B9
S31508002880CDE90004694628460294FEF749FD002270
S3150800289011462720FEF7B2FE2720FEF7A1FE06B056
S315080028A070BD0000003801400010024000080140D9
S315080028B000480040000C014090F84230202B01D01F
S315080028C00220704721B11AB10023036301F092BBBD
S315080028D00120704770B504461048104D00682D1F3A
S315080028E0A04209D1297805F11C0002F0A7F90122B6
S315080028F029462046FFF7E0FF09480068A0420CD1A8
S3150800290007486978183002F099F92046BDE8704002
S3150800291002490122C91EFFF7CFBF70BD2001002062
S31508002920500200202DE9F843044690F841009846E5
S3150800293016460D46202802D00220BDE8F88385B148
S315080029407EB100206064212084F84100FEF7EAFD8C
S31508002950A6848146E684A0682027B0F5805F02D069
S3150800296003E00120E9E7206910B12E4600250EE0B4
S3150800297000260CE08021204601F057FBA8B9C6B115
S3150800298016F8010B21684860E08C401EE084E08C54
S315080029904B464FF00002CDF800800028EAD14FF0F0
S315080029A04001204601F041FB40B184F84170032004
S315080029B0C3E735F8020BC0F30800E3E784F8417073
S315080029C00020BAE790F84130202B01D0022070474A
S315080029D079B172B101628284C284002141642121E5
S315080029E080F841100068C16841F08001C16000208C
S315080029F070470120704700002DE9F041154C054647
S31508002A0000262068A84208D104F596710F46201DB5
S31508002A1002F0DDF880B184F82D610F4C2068A842D9
S31508002A2008D104F596710F46201D02F0D0F848B17A
S31508002A3084F82D61BDE8F081012239462846FFF762
S31508002A40C1FFEAE739462846BDE8F0410122FFF70B
S31508002A50B9BF00002001002050020020FEE7000058
S31508002A6010B50E4800F05EFB0C48103000F05AFB1B
S31508002A700B4C002210212046FEF74FFD074803C8DD
S31508002A80FFF796FB002280212046FEF746FD034805
S31508002A90103003C8BDE81040FFF78ABBDC000020F1
S31508002AA0000C01400A4910B58022A1F1940002F0F9
S31508002AB077F8074980228039A1F12C04201D02F0FD
S31508002AC06FF80122211F2068BDE81040FFF7F4BE09
S31508002AD0CC0100200B4910B58022A1F1940002F028
S31508002AE05FF8084980228039A1F12C04201D02F0E4
S31508002AF057F8A4F233112068BDE810400122FFF709
S31508002B00DBBE0000FC02002000F0F6B80148808811
S31508002B1070470000040100200148806870470000E3
S31508002B2004010020054810B5807810B100F034F88B
S31508002B3008B1002010BD012010BD000004010020CE
S31508002B40134A10B50020107050709080114990708B
S31508002B509060086048608860C8600861486188615C
S31508002B60C86108844884888481F8260081F827008B
S31508002B7081F8280081F829000023CC1884F82A0057
S31508002B805B1CDBB2102BF8D3D060106110BD0000BF
S31508002B9004010020B403002010B5074CA07830B11A
S31508002BA0FEF7C0FC2169401AB0F57A7F01D90120E9
S31508002BB010BD002010BD000004010020F0B5314B07
S31508002BC09C68641C9C60102901D9102500E00D46FC
S31508002BD083F829100024264606E003EB040C075D5B
S31508002BE08CF82A70641CE4B2AC42F6D304E01D19D2
S31508002BF085F82A60641CE4B2102CF8D30C2903D09B
S31508002C005869401C586139E000258E1E2C46F6B2DC
S31508002C1004E0075D641C3D44ADB2E4B2A642F8D8B0
S31508002C200144044631F8021C5D8449BA99848D42F0
S31508002C3021D1417983F82610817983F82710C17943
S31508002C4083F8281001785529DAD141790029D7D196
S31508002C5081790529D4D1C1790229D1D1208940BAEF
S31508002C60188410802838B0F5F56F09D99869401C82
S31508002C7098610220F0BD1869401C18610020F0BD5B
S31508002C800120F0BDB403002070B5194C194B00257E
S31508002C9022788AB19854521CD0B22070022817D0D4
S31508002CA06378FBB198421DD30A4619461148FFF7C7
S31508002CB085FF2570657070BD552805D00D482030F4
S31508002CC0C169491CC16111E018700120207007E034
S31508002CD05878801CC0B26070001F1D2804D205E019
S31508002CE0657003E0202801D32570F9E7002070BD40
S31508002CF004010020940300202DE9FC414026FEF73C
S31508002D0011FC1E4C07461E4DE068381AC8282DD3FC
S31508002D10142309221B491C48E760FFF703FE68686D
S31508002D20401C686022E0761E2868F6B2401C2860BF
S31508002D3069469DF80400FFF7A7FF012802D002287C
S31508002D400DD011E0BDF80000A0800120A070A06899
S31508002D502761401CA060E868401CE86004E0BDF8F4
S31508002D600000A0800020A070002E05D001A9074809
S31508002D7002F0D8F80028D6D0BDE8FC81040100206E
S31508002D80B4030020DE4F000840090020500200204E
S31508002D904FF400510148FEF7B8BB0000001001408F
S31508002DA04FF400610148FEF7B0BB0000000801407F
S31508002DB03EB500211148009101910F4A0291026027
S31508002DC081600173017501244FF460220461C261B8
S31508002DD04160FEF7F9F808B172B6FEE70820CDE9BA
S31508002DE000040720029069460448FDF7EDFF002815
S31508002DF001D072B6FEE73EBD00240140F007002070
S31508002E002DE9F04F85B000244148009401940294BE
S31508002E100394816941F010018161816901F0100113
S31508002E200491816941F020018161816901F02001E5
S31508002E300491816941F004018161816901F004010D
S31508002E400491816941F0080181618069DFF8C490C5
S31508002E5000F008004FF40055049000222946484621
S31508002E60FEF75BFBDFF8B0A0AF10002239465046EC
S31508002E70FEF753FBDFF8A4B0002298215846FEF768
S31508002E804CFB4FF44078012241465846FEF745FB75
S31508002E900095022601250396CDE901546946484660
S31508002EA0FEF73EFA4FF44040CDE90004694648462D
S31508002EB00294FEF735FAFF20CDE90004694650462C
S31508002EC00294FEF72DFA4FF47040CDE900046946E6
S31508002ED058460294FEF724FA00970396CDE9015462
S31508002EE069465046FEF71CFA9820CDE90005CDE95B
S31508002EF0024669465846FEF713FACDE90085CDE93C
S31508002F00025669465846FEF70BFA05B0BDE8F08F3B
S31508002F10001002400010014000080140000C01406A
S31508002F2010B586B0002418480094019402940394BE
S31508002F3004941449059401604721C0E9011440F23C
S31508002F40CF71C0E903148021C0E90541FEF7B4FE3C
S31508002F5008B172B6FEE74FF48050009069460A48F9
S31508002F60FEF722FF08B172B6FEE7049404A90648E4
S31508002F700594FEF76DFE002801D072B6FEE706B08E
S31508002F8010BD0000002C01402008002030B589B093
S31508002F90002407941C2168460894FDF7DCF81B4DAD
S31508002FA0194828604720C5E9010440F2E730C5E919
S31508002FB003042846AC61FFF7ACF808B172B6FEE721
S31508002FC0079407A911480894FEF742FE08B172B69D
S31508002FD0FEE76020CDE900040294042269460B4806
S31508002FE00494FFF730F808B172B6FEE704210748E3
S31508002FF0FFF7DEF808B172B6FEE72868846303486F
S31508003000FEF7DAFF09B030BD00040040680800206A
S3150800301030B589B0002407941C2168460894FDF74A
S315080030209AF81B4D194828604720C5E9010440F263
S31508003030E730C5E903042846AC61FFF76AF808B12A
S3150800304072B6FEE7079407A911480894FEF700FE32
S3150800305008B172B6FEE76020CDE9000402940022AA
S3150800306069460B480494FEF7EEFF08B172B6FEE710
S3150800307000210748FFF79CF808B172B6FEE72868F2
S3150800308044630348FEF798FF09B030BD00080040C6
S31508003090B0080020FEE7000070B505460C468068BB
S315080030A0A989B4F57A7F02DB40F2E73406E014F525
S315080030B07A7F01DC1A4C18E0002C16DB0022FEF79A
S315080030C02CFA686838B1042809D0082828680068E6
S315080030D009D0046470BD28680068446370BD286818
S315080030E00068846370BDC46370BD0122FEF715FADB
S315080030F0686848B104280CD029680828C4F100007B
S3150800310009680BD0086470BD29686042096848637D
S3150800311070BD296860420968886370BDC86370BD60
S3150800312019FCFFFF05C8002100682AB1042A05D04A
S31508003130082A05D001647047416370478163704768
S31508003140C1637047FEE7000010B50021084C0B4626
S31508003150002004EBC1121354401CC0B28028FAD3D5
S31508003160491CC9B20829F3D30249FF20087010BDCB
S31508003170F0030020180100202DE9F0437F2833D8FA
S315080031803F2931D88418802C02D9C0F18002D2B2E6
S31508003190CC18402C02D9C1F14003DBB20126DFF876
S315080031A04C80DFF84C9087180B441BE0CA0898F847
S315080031B0005006FA02F42C4388F8004001F0070C88
S315080031C0044606FA0CF509EBC21207E012F804C029
S315080031D02CEA050C02F804C0641CE4B2A742F5D830
S315080031E0491CC9B28B42E1D8BDE8F083180100201A
S315080031F0F003002010B500204FF47A720021491C14
S315080032009142FCD3401C9042F8D3012000F0D0F93B
S31508003210BDE81040012000F0E1B970B5002406466B
S31508003220802525FA04F0304000D0012000F0D6F9B8
S31508003230012000F0BDF9002000F0BAF9641CE4B2E0
S31508003240082CEED3012000F0B3F9BDE87040002049
S3150800325000F0AEB910B5012000F0C0F9012000F069
S31508003260A7F9002000F0BAF9BDE81040002000F0E8
S315080032709FB910B5002000F0B1F9012000F098F9C7
S31508003280BDE81040012000F0A9B910B5FFF7B2FF5C
S31508003290AE2000F0B9F9D52000F0B6F9802000F08C
S315080032A0B3F9A82000F0B0F93F2000F0ADF9D3201B
S315080032B000F0AAF9002000F0A7F9402000F0A4F9D0
S315080032C0A12000F0A1F9C82000F09EF9DA2000F04C
S315080032D09BF9122000F098F9812000F095F9CF208B
S315080032E000F092F9D92000F08FF9F12000F08CF95E
S315080032F0DB2000F089F9302000F086F9A42000F0E0
S3150800330083F9A62000F080F98D2000F07DF91420BD
S3150800331000F07AF9AF2000F077F9FFF715FFBDE85E
S31508003320104000F00BB90246012000E05043491E48
S31508003330FCD270470FB470B588B014460D460646E1
S3150800334010AA68460F9900F0D9FE23466A46294610
S31508003350304600F0DDF808B070BC5DF814FB10B517
S315080033600C4640F0B00000F04FF9102040EA141067
S3150800337000F04AF904F00F00BDE8104000F044B927
S3150800338008B5082B0DD0062B0AD10A4B02EB4202D0
S3150800339003EB4202C03A00920823062200F00EF818
S315080033A008BD054B03EB0212A2F50072102300922A
S315080033B00822F3E7D7550008E74F00082DE9FC4F28
S315080033C01F4615460C4606467F284AD83F2C48D83D
S315080033D0FFF7D2FE781EC117002300EB51700121BA
S315080033E0DFF884B004F0070901EBE00737E00020B6
S315080033F031E031187F2930D803EBD40ABAF1070F28
S315080034002FD80BEBCA1E03FB05F21EF801C001926A
S31508003410DDF82C808044CDF8008012F8082002FAE6
S3150800342009F24CEA020C0AF101020EF801C0072A59
S315080034300FD80EEB0108DDE900C198F8802011F8D5
S315080034400CC0C9F108012CFA01FC42EA0C0288F802
S315080034508020401CC0B2A842CBD35B1CDBB29F4283
S31508003460C5DCBDE8FC8F0000F00300202DE9F0471D
S3150800347000241D4690468A4681460A27089E14E07F
S31508003480291B0A20491EFFF74EFFB8FBF0F0B0FBD8
S31508003490F7F107FB110204FB0690C0B2334651460A
S315080034A03032FFF76DFF641CE4B2AC42E8D3BDE8E6
S315080034B0F0872DE9F0471E46DDF8208014008A467D
S315080034C08146434604D42B22FFF75AFF254603E0DC
S315080034D02D22FFF755FF654200240A2714E0311B09
S315080034E00A20491EFFF71FFFB5FBF0F0B0FBF7F106
S315080034F007FB1102641C04FB0890C0B24346514600
S315080035003032FFF73DFFE4B2B442E8D3BDE8F087B6
S315080035102DE9F0411E46154688460746002408E070
S3150800352004FB0670C0B233464146FFF729FF641C08
S31508003530E4B22A5D002AF3D1BDE8F08170B5094DE1
S31508003540002400212046FFF70AFF05EBC41080215E
S3150800355000F06BF8641CE4B2082CF2D30249002090
S31508003560087070BDF00300201801002070B50E4DDC
S31508003570012468782A7804FA00F111420ED0002155
S31508003580FFF7EDFE0948697800EBC110802100F0CD
S315080035904CF8687884402878A04328706878401CDE
S315080035A000F00700687070BD18010020F0030020C5
S315080035B008B502464FF480710748FDF7AEFF0020B4
S315080035C003E000BFBDF80000401CADF80000BDF8E0
S315080035D000000328F6D308BD000C014008B50246D2
S315080035E04FF400710748FDF798FF002003E000BF7D
S315080035F0BDF80000401CADF80000BDF80000032827
S31508003600F6D308BD000C014010B50446FFF722FEAC
S315080036107820FFF702FE0020FFF7FFFD2046FFF7A0
S31508003620FCFDBDE81040FFF724BE70B50D46064602
S31508003630FFF710FE7820FFF7F0FD4020FFF7EDFDBD
S31508003640002404E0305DFFF7E8FD641CE4B2AC42F8
S31508003650F8D3BDE87040FFF70CBE000002480078BA
S31508003660002800D0012070470000002004480021EF
S3150800367001220170018141708270C16000F0E0B8DA
S31508003680000000204FF4BE71881D00F001B800004C
S3150800369010B50C4601460448FFF7FEFC2146BDE876
S315080036A010400248FFF7F8BCDC000020EC000020C0
S315080036B070B53E4C00252078F8B96078042802D207
S315080036C0401C60702EE06570FFF72CFA10B3FFF708
S315080036D023FAE168884225D0E060FFF717FA014629
S315080036E0A0780126C8B1012000F062F8D0B1267092
S315080036F025813046A570FDF755FA21784FF4B47048
S3150800370042424FF42F7606294CD2DFE801F04B0DE2
S315080037101925303A00F094F804E0B1F5B97F01D9DB
S31508003720A670F7E7002070BD01461046FFF7B0FF08
S315080037302089401C80B22081322831D3022008E03B
S31508003740FFF7A0FF2089401C80B22081B04227D312
S3150800375003202070258123E01146FFF799FF208971
S31508003760401C80B2208164281AD30420F1E7FFF7B1
S3150800377089FF2089401C80B22081B04210D30520E1
S31508003780E7E701461046FFF783FF2089401C80B211
S315080037902081322804D3257025810220FDF702FAFC
S315080037A0012070BD25702581BCE7000000000020BF
S315080037B010B528B1282903D340F28A20814202D9BC
S315080037C000F03EF837E01D4AD07828B1508900F15C
S315080037D00F039BB28B4203D2084600F03DF82AE05D
S315080037E01379FF2B01D25B1C137101F10F039BB2F6
S315080037F0834204D25079FF2801D2401C5071B1F59A
S31508003800167F03D30120D071002003E09079FF28AA
S3150800381001D2401C90715181D07960B1107903288A
S3150800382009D35079032806D39079032803D300F0E7
S3150800383007F8012010BD002010BD00000000002080
S31508003840044800214181C170017141718171C171C2
S3150800385070470000000000200A4901224881CA700A
S315080038600A7100224A714FF41672904201D201235E
S3150800387000E000238B71904201D3012000E0002074
S31508003880C8717047000000201FB501A800F0CCF8E9
S315080038900021102380220846FFF76EFCFFF742F945
S315080038A048B1FFF733F90021009017A3082208460C
S315080038B0FFF740FD05E00021082316A20846FFF79A
S315080038C027FE082317A210210020FFF721FE082350
S315080038D016A220210020FFF71BFE082315A220218F
S315080038E04820FFF715FE082301AA10212820FFF714
S315080038F00FFEFDF7E9F80246082000900423202170
S315080039002820FFF7B3FD1FBD646973743A25347523
S31508003910206D6D00646973743A202D2D2D2D206D50
S315080039206D00000053454E3A000000004241543AEB
S31508003930000000006D560000704700002DE9F04FAA
S3150800394087B0FDF7C1F82C4C834601212046FDF7C8
S31508003950D7FD00283FD00020814602212046FDF7EA
S31508003960CFFD002839D00020804604212046FDF7E7
S31508003970C7FD70B3002508212046FDF7C1FD48B3F1
S31508003980002610212046FDF7BBFD60B30027202145
S315080039902046FDF7B5FD40B3002440211648FDF743
S315080039A0AFFD20B30020824680211348FDF7A8FD0D
S315080039B0F8B10022CDE9004703A9029681E8200B59
S315080039C00E48534601780EA000F088FB07B0BDE804
S315080039D0F08F04E005E00120BEE70120C4E70125D9
S315080039E0C9E70126CDE70127D1E70124D5E701205C
S315080039F0D9E70122DEE70000000801401C0000208C
S31508003A0072756E3D25752C73656E3D257525752574
S31508003A1075257525752575257525752C626174744A
S31508003A203D25750D0A00000070B5284D0446802115
S31508003A302846FDF765FDA8B33020207040212846AA
S31508003A40FDF75EFD78B33020607020212846FDF72B
S31508003A5057FD48B33020A07010212846FDF750FDC9
S31508003A6048B33020E07008212846FDF749FD20B309
S31508003A703020207104212846FDF742FDF8B1302098
S31508003A80607102212846FDF73BFDD0B13020A071B8
S31508003A9001212846FDF734FDA8B13020E071002049
S31508003AA0207270BD01E002E003E03120C5E7312055
S31508003AB0CAE73120CFE73120D4E73120D9E73120D2
S31508003AC0DEE73120E3E73120E8E70000000801409F
S31508003AD005490B788A680BB14968421A4FF47A701F
S31508003AE0B2FBF0F0704700001000002008B1012278
S31508003AF000E00022064803789A4207D012B14160D6
S31508003B00002101E04368C91A81600270704700000D
S31508003B10100000207047000070B5FDF709FD002071
S31508003B200A4B012500EB400403EB84014A8842B1A5
S31508003B30521E1204120C4A8003D18A884A8003F85E
S31508003B402450401C80B20B28ECD370BD2400002002
S31508003B5030B593B028216846FCF7FDFA14210AA867
S31508003B60FCF7F9FA002501200F9510951195010427
S31508003B7012958DE8230004904FF4E010CDE9081063
S31508003B80022407946846FDF7BDFE08B172B6FEE743
S31508003B900AA90F2081E831004FF48060CDE90D05B0
S31508003BA002210AA8FDF7D2FD08B172B6FEE74FF466
S31508003BB0004011900F940FA8FDF752FD002801D080
S31508003BC072B6FEE713B030BD704700000148FEF735
S31508003BD05AB9000020080020F0B50268194B1A4CA3
S31508003BE01A4D4FF08047984205D0B84203D0A042FC
S31508003BF001D0A84203D122F070064A68324398429F
S31508003C0005D0B84203D0A04201D0A84203D122F47D
S31508003C104074CA6822434C6922F08002224302603B
S31508003C208A68C2620A688262984201D10969016398
S31508003C30012141610169C90703D0016921F0010128
S31508003C400161F0BD002C014000040040000800405E
S31508003C5010B501F01F030121046A99408C430462E0
S31508003C60016A9A401143016210BD10B5846842EAA0
S31508003C70032224F47F440A432243826010BD8268EB
S31508003C8022F070020A4342F0070181607047000083
S31508003C9030B5036A026A22F0010202624268846948
S31508003CA024F073050C682C4323F002058B682B431C
S31508003CB00A4DA8420BD123F00805CB6822F44072BE
S31508003CC02B434D6923F0040315438A692A4342604E
S31508003CD0846149684163036230BD0000002C0140DD
S31508003CE030B5026A036A23F01003036243688469E5
S31508003CF00D6824F4E64444EA05248D6822F020027F
S31508003D0042EA05120B4DA8420ED1CD6822F0800278
S31508003D1042EA05124D6923F4406343EA85038D6937
S31508003D2022F0400243EA850343608461496881635F
S31508003D30026230BD002C014030B5036A026A22F4E3
S31508003D40807202624268C46923F4007324F0730522
S31508003D500C682C438D6843EA05230C4DA8420ED106
S31508003D60CD6823F4006343EA05234D6922F44052E3
S31508003D7042EA05128D6923F4806342EA051242601D
S31508003D80C4614968C163036230BD0000002C01406C
S31508003D9030B5046A026A22F4805202624268C36934
S31508003DA00D6823F4E64343EA05238D6824F400549A
S31508003DB044EA0534064DA84204D14D6922F48042EE
S31508003DC042EA85124260C36149680164046230BDF3
S31508003DD0002C014010B5036A046A24F00104046249
S31508003DE0846924F0F00444EA021423F00A020A4320
S31508003DF08461026210BD10B5036A046A24F01004D7
S31508003E000462846923F0A00324F4704444EA02326D
S31508003E1043EA01118261016210BD10B5406A0021B2
S31508003E20C185C184FEF770FB10BD01680C3151E8ED
S31508003E30002F22F4907241E80023002BF5D1016887
S31508003E40143151E8002F22F0010241E80023002B2B
S31508003E50F5D1016B012909D101680C3151E8002F10
S31508003E6022F0100241E80023002BF5D1202180F82A
S31508003E70421000210163704708B590F842102229C4
S31508003E8001D0022008BD82684FF480539A4201D1BE
S31508003E90016921B1816A9A421BD04AB10AE00268D7
S31508003EA0816A5268C2F308020A80816A891C08E09E
S31508003EB0026972B10268526802F07F020A70816A6A
S31508003EC0491C8162C18D491E0904090CC18503D0AC
S31508003ED01BE002685268F1E70168CA6822F020020E
S31508003EE0CA600168CA6822F48072CA6001684A69B1
S31508003EF022F001024A61202180F842100021416324
S31508003F00026B012A03D0FEF7E5FC002008BD016319
S31508003F1001680C3151E8002F22F0100241E8002315
S31508003F20002BF5D101680A68D20602D50A684968E5
S31508003F300091818DFEF7E7FAE7E7000070B50446C1
S31508003F4000680169E26821F4405111430161216961
S31508003F50A0680843616908432168CA6841F20C638E
S31508003F609A430243CA6020684169A26921F44071F4
S31508003F70114341611E492068884202D1FDF78CFC35
S31508003F8001E0FDF779FC00EBC00101EB0012606867
S31508003F9064218000B2FBF0F3B3FBF1F36FF018066F
S31508003FA07343B2FBF0F5B2FBF0F605EB830532235B
S31508003FB003EB0515B5FBF1F5B6FBF1F605F0F005D3
S31508003FC005EB0615B2FBF0F6B2FBF0F0B0FBF1F02C
S31508003FD06FF01802504306EB800003EB0010B0FBAD
S31508003FE0F1F0216800F00F002844886070BD0000D9
S31508003FF00038014081628285C28500214164222100
S3150800400080F84210016921B10168CA6842F48072D9
S31508004010CA6001684A6942F001024A610068C168DB
S3150800402041F02001C160002070472DE9F843984609
S3150800403017460D460446089E24E0701C22D0FDF75C
S3150800404071FAA0EB0800B0421AD8CEB12068C16850
S31508004050490717D5802D15D0402D13D00168C943BF
S3150800406009070FD401680025406800902046FFF72D
S31508004070DCFE0820606484F840500120BDE8F8831F
S315080040800320FBE72068006835EA000004D000201A
S31508004090B842D2D00020F1E70120F9E70148FEF73F
S315080040A035BA0000F80800200148FEF72FBA0000CC
S315080040B04009002000B591B040226946054800F045
S315080040C034FF021E03DD6946024800F057FF11B0AF
S315080040D000BD000020010020FEE700000FB4054BDC
S315080040E010B503A9044A029800F0FCF810BC5DF864
S315080040F014FB0000B14C00088003002037B51446B5
S315080041000846064B6A46214600F0ECF8044669461E
S31508004110002000F06AFC20463EBD0000EB4900087E
S315080041200907090E002804DB00F1E02080F80014D6
S31508004130704700F00F0000F1E02080F8141D70476A
S3150800414002E008C8121F08C1002AFAD17047704752
S31508004150002001E001C1121F002AFBD170470000B0
S315080041602DE9FF5F82B00021DDE90430020DDDF89C
S3150800417040B0034318D044F61050A2F2FF3242432F
S315080041801514119801281FD0A5EB0B00401C5FEAF7
S31508004190000A4FF000064E4FDFF83891B0465046F9
S315080041A015D5CAF1000413E0119801244AA3012881
S315080041B001D16FEA0B010298119AC0E90031C0E9F2
S315080041C0024206B0BDE8F09FCBF10000DFE70446E7
S315080041D00021404A491842EB0450CDE9001012E08C
S315080041E0E00707D032463B4640464946FCF72DF9DC
S315080041F08046894632463B4610461946FCF725F95D
S3150800420006460F466410002CEAD1DDE90401DDE913
S315080042100023BAF1000F06DAFCF717F942464B46B7
S31508004220FCF713F905E0FCF782F942464B46FCF722
S315080042307EF904460E460022284BFCF72FFA03D8CF
S315080042404FF0FF30014607E00022254B2046314655
S31508004250FCF754F8FCF74AFB102409E0002C0ADBAB
S315080042600A220023FCF75CFA039B30321A55641EB7
S3150800427050EA0102F2D1641C039AC4F111031444F2
S31508004280119A012A03D0012208430DD10AE00843F6
S3150800429004D000204FF0110B119072E7A3EB0B0529
S315080042A06D1E0DE05B4504DD4FF0000205F10105CA
S315080042B004E003DA4FF00002A5F10105002AECD06C
S315080042C002981199C0E90231C0E9004579E7000072
S315080042D0000014400000F03F300000000000F043EA
S315080042E00000E03F2DE9FF4F95B09A4688460646FE
S315080042F00025EEE1252877D100242746F94A012131
S31508004300039400E0044316F8013F203B01FA03F04A
S315080043101042F7D130782A2811D06FF02F03307861
S31508004320A0F13002092A16D8039A44F0020402EBD7
S31508004330820203EB42021044761C0390EFE758F81A
S31508004340042B0392002A03DA504244F400540390E3
S3150800435044F00204761C30782E2816D116F8010F80
S3150800436044F004042A280DD06FF02F023078A0F10B
S315080043703003092B09D807EB870302EB4303C71859
S31508004380761CF3E758F8047B761C30786C280FD037
S3150800439006DC4C2817D068280DD06A2814D104E00A
S315080043A0742810D07A280FD10DE044F400140AE0DE
S315080043B044F4801401E044F440147278824202D135
S315080043C004F58014761C761C307866280BD013DC2E
S315080043D0582877D009DC002875D04528F6D0462815
S315080043E0F4D047281AD193E118E0632835D0642819
S315080043F079D0652812D18BE1702873D008DC67283C
S31508004400F1D069286FD06E280DD06F2806D1ACE0A0
S3150800441073282CD0752874D0782853D0524617990B
S3150800442090476D1C54E1C4F30250022809D00328B2
S315080044300DD0D8F8001004280DD00D6008F1040836
S3150800444046E1D8F80010EA17C1E90052F6E7D8F8AD
S3150800445000100D80F2E70D70F0E718F8041B8DF8D0
S31508004460001000208DF80100EB46012003E058F803
S3150800447004BB4FF0FF3061074FF0000102D40DE096
S3150800448009F101018946B9420FDA8145F8DB1BF8C3
S3150800449009100029F4D108E009F101018946814291
S315080044A0FADB1BF809100029F6D103985346A0EB4E
S315080044B0090721463846179A00F080FA284400EB87
S315080044C0090507E044E008E10DE01BF8010B524638
S315080044D017999047B9F10109F7D25346214638464C
S315080044E0179AF2E039E00A21C4F302524FF0000BA2
S315080044F00091022A06D058F8040BC117032A09D0DE
S315080045000AE023E008F1070020F00702F2E80201BA
S31508004510904605E000B2C117042A01D140B2C1177E
S31508004520002906DA0A460021404261EB02012D22E3
S3150800453002E0220504D52B228DF80420012203E08F
S31508004540E20701D02022F7E7914657E00A2100E06A
S3150800455010214FF0000B00910BE010214FF0000BDB
S3150800456044F004040827009103E008204FF0000BEC
S315080045700090C4F30252022A05D058F8040B002111
S31508004580032A08D008E008F1070020F00702F2E83D
S315080045900201904603E080B2042A00D1C0B24FF06F
S315080045A0000922072AD53278702A07D0DDF800C01C
S315080045B08CF0100C5CEA0B0C05D00EE040228DF84E
S315080045C00420012208E050EA010306D030238DF8C2
S315080045D004308DF8052002229146009B83F00803DB
S315080045E053EA0B030AD150EA010201D1620705D545
S315080045F030228DF804204FF001097F1E3278582AA0
S3150800460004D039A20C920CAA02920BE03BA2F9E75D
S315080046105B46009AFCF784F80C9B9B5C029A521E38
S315080046200292137050EA0102F2D1029804A9081AFC
S3150800463000F1200B600702D524F4803400E001273E
S315080046405F4502DDA7EB0B0000E0002000EB0B0145
S31508004650009003984944401A0390E00306D4534651
S315080046602146179A039800F0A9F90544002706E0A1
S3150800467001A85246C05D179990476D1C7F1C4F458F
S31508004680F6DBE0030CD553462146179A039800F04B
S3150800469095F9054404E030205246179990476D1C59
S315080046A00099481E00900029F5DC08E00298029956
S315080046B052460078491C0291179990476D1CBBF128
S315080046C00001ABF1010BF1DC5BE100F065F9054493
S315080046D0761C307800287FF40DAE19B02846BDE860
S315080046E0F08F00000928010030313233343536376F
S315080046F03839616263646566000000003031323320
S3150800470034353637383941424344454600000000BF
S31508004710600700D4062708F1070020F00700F0E834
S315080047200223804603F0004C5FEA0C0001D097A0F4
S3150800473009E0200501D596A005E0E00701D095A07F
S3150800474001E0AFF24C001390307823F0004365285F
S315080047500CD006DC452809D046281DD047287FD12D
S315080047603BE0662818D067287AD136E00021112F59
S3150800477001DB112000E0781CCDE9000104A90CA892
S31508004780FFF7EEFCDDE90D010C9A4FF0000B07F17F
S315080047900109109200914EE04FF000400097CDE9D4
S315080047A0011004A90CA8FFF7DBFCDDE90D020C9B40
S315080047B00F994FF0000B91461093009211B9791C8E
S315080047C000EB0109B7EB090003D4C0F1FF3B07F181
S315080047D00109A9EB0700019042E0012F00DA012741
S315080047E00021112F01DD112000E03846CDE9000136
S315080047F004A90CA8FFF7B4FCDDE90D010C9A009199
S315080048004FF0000BB946109221070FD4009A4A457B
S3150800481003DA914601E0A9F10109B9F1010F05DDB5
S31508004820109AA9F10101515C3029F4D0B84202DA94
S3150800483010F1040F03DA0121CDE9011010E0002878
S3150800484003DC8344A9EB000102E0411C494500DD75
S315080048508946A0EB0B00401C01904FF000400290E7
S31508004860200705D40198484502DB4FF0FF30019038
S3150800487000208DF84B0002980DF14B07B0F1004F60
S3150800488025D002200C902B200D90029800280CDAD7
S31508004890404202902D200D9007E00A210298FBF76E
S315080048A029FF3031029007F8011D0C99481E0C901B
S315080048B00029F2DC02980028EFD1791E0D980870BD
S315080048C0307800F0200040F0450007F8020D11A8E6
S315080048D0C01BC01D02901398007800B1012000EBA0
S315080048E00901019801EBE071029801440398401A06
S315080048F0401E0390E00306D453462146179A0398B0
S3150800490000F05CF805441398007818B152461799D8
S3150800491090476D1CE00323D553462146179A039802
S3150800492000F04CF805441BE0BBF1000F07DB0098CC
S31508004930584504DD1098179910F80B0001E01799EF
S3150800494030205246904701980BF1010B401E05F1A5
S315080049500105019004D12E205246179990476D1CE7
S31508004960B9F10001A9F10109DEDC05E017F8010B30
S315080049705246179990476D1C0299481E02900029C5
S31508004980F4DC53462146179A03989EE62D0000004C
S315080049902B000000200000002DE9F0410446002508
S315080049A01E461746880404D405E039462020B04739
S315080049B06D1C641EF9D52846BDE8F0812DE9F04145
S315080049C0044600251E469046C80301D5302700E058
S315080049D02027880404D505E041463846B0476D1CB3
S315080049E0641EF9D52846BDE8F0810A68531C0B6099
S315080049F01070704738B50F490546002448780228D4
S31508004A0000D20D4C401CC0B248700A2801D30020C1
S31508004A10487021460948FEF73FFB21460848FEF73D
S31508004A203BFB234600211A460846009500F0B0F9DC
S31508004A3038BD0000A8000020ACFEFFFFDC00002007
S31508004A40EC0000203EB50D46044602AA01A900F076
S31508004A504DF8019801B20E48FEF71EFB029801B206
S31508004A600C48FEF719FB2046FBF7D0FD0146002C43
S31508004A7001DA094805E002DD4FF07E5001E04FF00B
S31508004A8000000095DDE9012300F082F93EBD000033
S31508004A90DC000020EC000020000080BFC27801790D
S31508004AA02AB109B1002070476FF05900704709B163
S31508004AB05A207047817811B16FF0770070474179B5
S31508004AC009B178207047417811B16FF0D10070476D
S31508004AD0817909B1D2207047017811B16FF0E500EC
S31508004AE07047C0790028FBD0E620704770B5144699
S31508004AF00D46002801DA424200E002462AB14FF488
S31508004B00D2715A2A08DC296016E04FF4A77028608B
S31508004B104FF4A370206013E0782A01DC002208E035
S31508004B20D22A05DC00214FF4E172002806DB02E0F8
S31508004B30084A002802DA2A60216001E0296022601A
S31508004B40286800F0BFF82860206800F0BBF82060ED
S31508004B5070BD00005CFEFFFF884201DA0846704718
S31508004B609042FCDD1046704770B514460D46064661
S31508004B70FBF7ACFD01D2284670BD21463046FBF74F
S31508004B80AFFD01D2204670BD304670BD02460020FA
S31508004B900146535C03B1401C491C0829F9DB7047E0
S31508004BA048B141B13AB1C0E9001200218160C16043
S31508004BB00161084670474FF0FF30704718B1016928
S31508004BC04068814201D3012070470020704798B1A0
S31508004BD091B1026982B183680268D25C0A70D0E931
S31508004BE00121491CB1FBF2F302FB13118160016933
S31508004BF0491E0161002070474FF0FF30704770B5BD
S31508004C0030B129B103699A4200D31A4600230EE04F
S31508004C10002070BD85680468645DCC54D0E90154F1
S31508004C20641CB4FBF5F605FB16445B1C84609342D2
S31508004C30F0D30169891A0161104670BD18B143683D
S31508004C4002699A4202D34FF0FF307047C368026880
S31508004C50D154C1684268491CB1FBF2F302FB131137
S31508004C60C1600169491C01610020704770B540B1F7
S31508004C7039B1046943681B1B9A4200D31A460023BC
S31508004C800EE0002070BDC6680568CC5CAC55C468EB
S31508004C904568641CB4FBF5F605FB16445B1CC4604A
S31508004CA09342F0D3016911440161104670BD0000BA
S31508004CB010B50446C1B2024800F03AF9204610BDC4
S31508004CC02001002010B540F226224FF4D2710028A8
S31508004CD003DDBDE81040FFF73FBF05DAC0F100006D
S31508004CE0FFF73AFF404210BD002010BDFCF728FC34
S31508004CF0FEF72EFFFEF784F8FEF75AF821482049FA
S31508004D004FF4E13600250160C0E901650C24C56051
S31508004D10C0E904548561C561FDF72EFD08B172B678
S31508004D20FEE71848184948300160C0E90165C560C2
S31508004D30C0E904548561C561FDF71EFD08B172B668
S31508004D40FEE7FEF765F9FEF721F9FEF7E9F8FBF746
S31508004D50C1FE0C48D838FCF7FBFF0C4E5FF0000488
S31508004D6004EB440716F8270028B106EB870080688D
S31508004D70804706F82750641CA4B20B2CF0D3EDE745
S31508004D8000380140F80800200048004024000020B0
S31508004D902DE9F04188461D4616460849069FFBF749
S31508004DA03DFAFBF749FC064CE0804046FBF744FC1D
S31508004DB020816681A5812771BDE8F0810000204128
S31508004DC0A800002070B5274D044680212846FCF728
S31508004DD097FB98B30020207040212846FCF790FBEB
S31508004DE068B30020607020212846FCF789FB38B399
S31508004DF00020A07010212846FCF782FB38B300205B
S31508004E00E07008212846FCF77BFB10B300202071D0
S31508004E1004212846FCF774FBE8B1002060710221E2
S31508004E202846FCF76DFBC0B10020A0710121284679
S31508004E30FCF766FB98B10020E07170BD01E002E066
S31508004E4003E00120C7E70120CCE70120D1E70120D4
S31508004E50D6E70120DBE70120E0E70120E5E70120AE
S31508004E60EAE70000000801400648002101614161A7
S31508004E708161C161016241628162C16201634170FF
S31508004E8081707047A80000207CB56846FFF79AFF36
S31508004E906846FFF77BFE224C05460020A17899B1AB
S31508004EA0022D05DA9DF8031011B99DF8041049B1D1
S31508004EB0A0702063206260702AE02946E062FFF74E
S31508004EC0C1FD7CBD284607E001221DB19DF80310EF
S31508004ED041B904E0A2706070FFF78CFD7CBD9DF8B7
S31508004EE0041001B101219DF8023013B99DF805306F
S31508004EF003B10123194309D1012D07DC216B491C94
S31508004F002163642903DDA2706070DBE720632062F9
S31508004F10082D03D06846FFF7C1FDCEE70020CCE791
S31508004F20A80000201830FFF752BE1830FFF767BEFA
S31508004F3070B504460D46001DFFF740FE10B14FF050
S31508004F40FF3070BD2946201DFFF778FE94F82D0125
S31508004F5060B9012084F82D0104F596710D46201DCF
S31508004F60FFF735FE20B1002084F82D01002070BD22
S31508004F70012229462068FDF725FDF7E770B50446A6
S31508004F8015460E46001DFFF719FE10B14FF0FF300B
S31508004F9070BD2A463146201DFFF768FE050003D07E
S31508004FA094F82D0110B10EE0002070BD012084F8A0
S31508004FB02D0104F596710E46201DFFF708FE20B157
S31508004FC0002084F82D01284670BD0122314620684C
S31508004FD0FDF7F8FCF7E7F9FBFBFF01050507510AA2
S31508004FE00001000502006300000000000000000048
S31508004FF000000000000000000000F80000000000AB
S315080050000000333000000000160E00160E000000E7
S315080050100000000000000040C07840C0784000044E
S315080050203F04043F040400007088FC0830000000B8
S315080050301820FF211E0000F008F000E0180000000C
S31508005040211C031E211E0000F00888700000001EA7
S3150800505021232419272110000000160E0000000045
S3150800506000000000000000000000E0180402000034
S315080050700000071820400000020418E000000000A5
S3150800508040201807000000404080F08040400002A1
S3150800509002010F01020200000000F00000000001FA
S315080050A001011F01010100000000000000000000CE
S315080050B0B0700000000000000000000000000000C2
S315080050C001010101010101000000000000000000CB
S315080050D03030000000000000000000806018040066
S315080050E06018060100000000E010080810E0000043
S315080050F00F102020100F00001010F800000000000C
S3150800510020203F2020000000700808088870000052
S3150800511030282422213000003008888848300000D2
S3150800512018202020110E000000C02010F8000000F2
S31508005130070424243F240000F8088888080800008B
S3150800514019212020110E0000E010888818000000A0
S315080051500F112020110E0000380808C83808000072
S3150800516000003F00000000007088080888700000F2
S315080051701C222121221C0000E010080810E0000073
S3150800518000312222110F00000000C0C000000000FC
S3150800519000003030000000000000C0C00000000021
S315080051A00080B07000000000008040201008000059
S315080051B001020408102000404040404040400004DE
S315080051C004040404040400000810204080000000C1
S315080051D020100804020100007048080808F00000C2
S315080051E000003036010000C030C828E810E000078B
S315080051F018272423140B000000C038E00000002004
S315080052003C23020227382008F88888887000002086
S315080052103F202020110E00C0300808080838000773
S315080052201820202010080008F808080810E00020B8
S315080052303F202020100F0008F88888E80810002072
S315080052403F20202320180008F88888E80810002046
S315080052503F200003000000C0300808083800000797
S31508005260182020221E020008F808000008F8082066
S315080052703F210101213F20000808F8080800000026
S3150800528020203F2020000000000808F8080800C079
S315080052908080807F00000008F888C0281808002051
S315080052A03F20012638200008F808000000000020EA
S315080052B03F20202020300008F8F800F8F8080020E1
S315080052C03F003F003F200008F830C00008F80820DB
S315080052D03F200007183F00E01008080810E0000FFC
S315080052E010202020100F0008F808080808F00020F1
S315080052F03F210101010000E01008080810E0000F36
S3150800530018242438504F0008F888888888700020A8
S315080053103F2000030C302000708808080838000079
S3150800532038202121221C00180808F808081800004F
S3150800533000203F2000000008F808000008F80800D0
S315080053401F202020201F000878880000C838080081
S315080053500007380E010000F80800F80008F80003F6
S315080053603C0700073C030008186880806818082076
S31508005370302C03032C30200838C800C83808000031
S3150800538000203F2000000010080808C83808002040
S3150800539038262120201800000000FE020202000024
S315080053A000007F40404000000C30C00000000000B4
S315080053B00000010638C00000020202FE00000000DC
S315080053C04040407F0000000020100804081020001C
S315080053D0000000000000000000000000000000803F
S315080053E08080808080808000020408000000000021
S315080053F0000000000000000000808080800000009F
S3150800540019242222223F2008F8008080000000008C
S315080054103F112020110E000000008080800000004F
S315080054200E112020201100000000808088F800005E
S315080054300E112020103F2000008080808000000090
S315080054401F222222221300008080F08888881800F4
S3150800545020203F20200000000080808080800000FF
S315080054606B94949493600008F80080808000002074
S315080054703F210000203F200080989800000000008F
S3150800548020203F202000000000008098980000009F
S31508005490C08080807F000008F8000080808000209F
S315080054A03F24022D302000000808F8000000000004
S315080054B020203F202000008080808080808000207F
S315080054C03F20003F20003F008080008080000000D1
S315080054D0203F2100203F20000080808080000000BF
S315080054E01F202020201F0080800080800000008070
S315080054F0FFA12020110E000000008080808000009F
S315080055000E112020A0FF80808080008080800020EF
